{
  "_format": "hh-sol-artifact-1",
  "contractName": "Polyverse",
  "sourceName": "contracts/basic-solidity-examples/Polyverse.sol",
  "abi": [
    {
      "anonymous": false,
      "inputs": [
        {
          "indexed": true,
          "internalType": "uint256",
          "name": "id",
          "type": "uint256"
        },
        {
          "indexed": false,
          "internalType": "uint256",
          "name": "subscriptionFee",
          "type": "uint256"
        }
      ],
      "name": "CreatorAdded",
      "type": "event"
    },
    {
      "anonymous": false,
      "inputs": [
        {
          "indexed": true,
          "internalType": "uint256",
          "name": "eventId",
          "type": "uint256"
        },
        {
          "indexed": false,
          "internalType": "address",
          "name": "owner",
          "type": "address"
        },
        {
          "indexed": false,
          "internalType": "uint256",
          "name": "maxParticipants",
          "type": "uint256"
        },
        {
          "indexed": true,
          "internalType": "uint256",
          "name": "ticketPrice",
          "type": "uint256"
        }
      ],
      "name": "EventCreated",
      "type": "event"
    },
    {
      "anonymous": false,
      "inputs": [
        {
          "indexed": true,
          "internalType": "uint256",
          "name": "id",
          "type": "uint256"
        },
        {
          "indexed": false,
          "internalType": "address",
          "name": "subscriber",
          "type": "address"
        }
      ],
      "name": "SubscribedToCreator",
      "type": "event"
    },
    {
      "anonymous": false,
      "inputs": [
        {
          "indexed": true,
          "internalType": "uint256",
          "name": "eventId",
          "type": "uint256"
        },
        {
          "indexed": false,
          "internalType": "address",
          "name": "buyer",
          "type": "address"
        },
        {
          "indexed": true,
          "internalType": "uint256",
          "name": "ticketNFTId",
          "type": "uint256"
        }
      ],
      "name": "TicketPurchased",
      "type": "event"
    },
    {
      "inputs": [
        {
          "internalType": "address",
          "name": "",
          "type": "address"
        }
      ],
      "name": "_addressToCreatorId",
      "outputs": [
        {
          "internalType": "uint256",
          "name": "",
          "type": "uint256"
        }
      ],
      "stateMutability": "view",
      "type": "function"
    },
    {
      "inputs": [
        {
          "internalType": "address",
          "name": "",
          "type": "address"
        }
      ],
      "name": "_userToTicketId",
      "outputs": [
        {
          "internalType": "uint256",
          "name": "",
          "type": "uint256"
        }
      ],
      "stateMutability": "view",
      "type": "function"
    },
    {
      "inputs": [
        {
          "internalType": "string",
          "name": "_name",
          "type": "string"
        },
        {
          "internalType": "string",
          "name": "_imagepath",
          "type": "string"
        },
        {
          "internalType": "string",
          "name": "_category",
          "type": "string"
        },
        {
          "internalType": "string",
          "name": "_bio",
          "type": "string"
        },
        {
          "internalType": "uint256",
          "name": "_subscriptionFee",
          "type": "uint256"
        }
      ],
      "name": "addCreator",
      "outputs": [],
      "stateMutability": "nonpayable",
      "type": "function"
    },
    {
      "inputs": [],
      "name": "getAllCreators",
      "outputs": [
        {
          "components": [
            {
              "internalType": "string",
              "name": "name",
              "type": "string"
            },
            {
              "internalType": "string",
              "name": "imageIpfs",
              "type": "string"
            },
            {
              "internalType": "string",
              "name": "category",
              "type": "string"
            },
            {
              "internalType": "string",
              "name": "bio",
              "type": "string"
            },
            {
              "internalType": "uint256",
              "name": "subscriptionFee",
              "type": "uint256"
            },
            {
              "internalType": "address[]",
              "name": "subscribers",
              "type": "address[]"
            },
            {
              "internalType": "address",
              "name": "owner",
              "type": "address"
            },
            {
              "internalType": "uint256",
              "name": "balance",
              "type": "uint256"
            }
          ],
          "internalType": "struct Polyverse.Creator[]",
          "name": "",
          "type": "tuple[]"
        }
      ],
      "stateMutability": "view",
      "type": "function"
    },
    {
      "inputs": [],
      "name": "getAllEvents",
      "outputs": [
        {
          "components": [
            {
              "internalType": "address",
              "name": "eventNFT",
              "type": "address"
            },
            {
              "internalType": "uint256",
              "name": "id",
              "type": "uint256"
            },
            {
              "internalType": "string",
              "name": "name",
              "type": "string"
            },
            {
              "internalType": "uint256",
              "name": "cost",
              "type": "uint256"
            },
            {
              "internalType": "uint256",
              "name": "tickets",
              "type": "uint256"
            },
            {
              "internalType": "uint256",
              "name": "maxTickets",
              "type": "uint256"
            },
            {
              "internalType": "string",
              "name": "date",
              "type": "string"
            },
            {
              "internalType": "string",
              "name": "time",
              "type": "string"
            },
            {
              "internalType": "string",
              "name": "location",
              "type": "string"
            },
            {
              "internalType": "address",
              "name": "owner",
              "type": "address"
            },
            {
              "internalType": "address[]",
              "name": "participants",
              "type": "address[]"
            }
          ],
          "internalType": "struct Polyverse.Event[]",
          "name": "",
          "type": "tuple[]"
        }
      ],
      "stateMutability": "view",
      "type": "function"
    },
    {
      "inputs": [],
      "name": "getAllMusic",
      "outputs": [
        {
          "components": [
            {
              "internalType": "uint256",
              "name": "id",
              "type": "uint256"
            },
            {
              "internalType": "string",
              "name": "title",
              "type": "string"
            },
            {
              "internalType": "uint256",
              "name": "createdAt",
              "type": "uint256"
            },
            {
              "internalType": "string",
              "name": "musicFile",
              "type": "string"
            },
            {
              "internalType": "string",
              "name": "image",
              "type": "string"
            },
            {
              "internalType": "string",
              "name": "name",
              "type": "string"
            },
            {
              "internalType": "string",
              "name": "feature",
              "type": "string"
            },
            {
              "internalType": "string",
              "name": "category",
              "type": "string"
            },
            {
              "internalType": "address",
              "name": "owner",
              "type": "address"
            }
          ],
          "internalType": "struct Polyverse.Music[]",
          "name": "",
          "type": "tuple[]"
        }
      ],
      "stateMutability": "view",
      "type": "function"
    },
    {
      "inputs": [],
      "name": "getAllTickets",
      "outputs": [
        {
          "components": [
            {
              "internalType": "address",
              "name": "owner",
              "type": "address"
            },
            {
              "internalType": "uint256",
              "name": "eventId",
              "type": "uint256"
            },
            {
              "internalType": "uint256",
              "name": "seatNumber",
              "type": "uint256"
            },
            {
              "internalType": "uint256",
              "name": "ticketNFTId",
              "type": "uint256"
            }
          ],
          "internalType": "struct Polyverse.Ticket[]",
          "name": "",
          "type": "tuple[]"
        }
      ],
      "stateMutability": "view",
      "type": "function"
    },
    {
      "inputs": [],
      "name": "getAllVideo",
      "outputs": [
        {
          "components": [
            {
              "internalType": "uint256",
              "name": "id",
              "type": "uint256"
            },
            {
              "internalType": "string",
              "name": "title",
              "type": "string"
            },
            {
              "internalType": "string",
              "name": "description",
              "type": "string"
            },
            {
              "internalType": "string",
              "name": "videoFile",
              "type": "string"
            },
            {
              "internalType": "string",
              "name": "image",
              "type": "string"
            },
            {
              "internalType": "address",
              "name": "owner",
              "type": "address"
            },
            {
              "internalType": "string",
              "name": "name",
              "type": "string"
            },
            {
              "internalType": "string",
              "name": "category",
              "type": "string"
            },
            {
              "internalType": "uint256",
              "name": "createdAt",
              "type": "uint256"
            }
          ],
          "internalType": "struct Polyverse.Video[]",
          "name": "",
          "type": "tuple[]"
        }
      ],
      "stateMutability": "view",
      "type": "function"
    },
    {
      "inputs": [
        {
          "internalType": "address",
          "name": "subscriber",
          "type": "address"
        },
        {
          "internalType": "uint256",
          "name": "creatorId",
          "type": "uint256"
        }
      ],
      "name": "isSubscribedToCreator",
      "outputs": [
        {
          "internalType": "bool",
          "name": "",
          "type": "bool"
        }
      ],
      "stateMutability": "view",
      "type": "function"
    },
    {
      "inputs": [
        {
          "internalType": "string",
          "name": "_name",
          "type": "string"
        },
        {
          "internalType": "uint256",
          "name": "_cost",
          "type": "uint256"
        },
        {
          "internalType": "uint256",
          "name": "_maxTickets",
          "type": "uint256"
        },
        {
          "internalType": "string",
          "name": "_date",
          "type": "string"
        },
        {
          "internalType": "string",
          "name": "_time",
          "type": "string"
        },
        {
          "internalType": "string",
          "name": "_location",
          "type": "string"
        }
      ],
      "name": "listEvent",
      "outputs": [],
      "stateMutability": "nonpayable",
      "type": "function"
    },
    {
      "inputs": [
        {
          "internalType": "uint256",
          "name": "eventId",
          "type": "uint256"
        }
      ],
      "name": "purchaseTicket",
      "outputs": [],
      "stateMutability": "payable",
      "type": "function"
    },
    {
      "inputs": [
        {
          "internalType": "uint256",
          "name": "creatorId",
          "type": "uint256"
        }
      ],
      "name": "subscribeToCreator",
      "outputs": [],
      "stateMutability": "nonpayable",
      "type": "function"
    },
    {
      "inputs": [
        {
          "internalType": "string",
          "name": "_title",
          "type": "string"
        },
        {
          "internalType": "string",
          "name": "_musicFile",
          "type": "string"
        },
        {
          "internalType": "string",
          "name": "_image",
          "type": "string"
        },
        {
          "internalType": "string",
          "name": "_category",
          "type": "string"
        },
        {
          "internalType": "string",
          "name": "features",
          "type": "string"
        }
      ],
      "name": "uploadAMusic",
      "outputs": [],
      "stateMutability": "nonpayable",
      "type": "function"
    },
    {
      "inputs": [
        {
          "internalType": "string",
          "name": "_title",
          "type": "string"
        },
        {
          "internalType": "string",
          "name": "_description",
          "type": "string"
        },
        {
          "internalType": "string",
          "name": "_videoFile",
          "type": "string"
        },
        {
          "internalType": "string",
          "name": "_image",
          "type": "string"
        },
        {
          "internalType": "string",
          "name": "_category",
          "type": "string"
        }
      ],
      "name": "uploadAVideo",
      "outputs": [],
      "stateMutability": "nonpayable",
      "type": "function"
    }
  ],
  "bytecode": "0x608060405234801561001057600080fd5b50614d52806100206000396000f3fe608060405260043610620000ef5760003560e01c80634f23bba41162000089578063c193736b1162000060578063c193736b1462000293578063c27a500d14620002c4578063dd5f1fb514620002eb578063f97fac4d146200031057600080fd5b80634f23bba41462000232578063abcda41d1462000257578063b948348c146200027c57600080fd5b8063135b40e511620000ca578063135b40e5146200017057806321ebf5d514620001b0578063270816e514620001e45780634a4b6656146200020b57600080fd5b806303e96fe314620000f457806304d120e31462000124578063097f46d1146200014b575b600080fd5b3480156200010157600080fd5b506200010c62000337565b6040516200011b91906200239b565b60405180910390f35b3480156200013157600080fd5b506200014962000143366004620024cd565b620003c3565b005b3480156200015857600080fd5b50620001496200016a366004620025ff565b62000594565b3480156200017d57600080fd5b50620001a16200018f36600462002701565b600b6020526000908152604090205481565b6040516200011b919062002726565b348015620001bd57600080fd5b50620001d5620001cf36600462002736565b6200075c565b6040516200011b919062002782565b348015620001f157600080fd5b50620001fc62000ae7565b6040516200011b919062002952565b3480156200021857600080fd5b506200022362000f07565b6040516200011b919062002abd565b3480156200023f57600080fd5b506200014962000251366004620024cd565b62001326565b3480156200026457600080fd5b50620001496200027636600462002ad0565b620014f3565b620001496200028d36600462002bdb565b620017cb565b348015620002a057600080fd5b50620001a1620002b236600462002701565b60096020526000908152604090205481565b348015620002d157600080fd5b50620002dc62001aa6565b6040516200011b919062002ddf565b348015620002f857600080fd5b50620001496200030a36600462002bdb565b62001e19565b3480156200031d57600080fd5b506200032862001e91565b6040516200011b919062002f2b565b6060600f805480602002602001604051908101604052809291908181526020016000905b82821015620003ba576000848152602090819020604080516080810182526004860290920180546001600160a01b031683526001808201548486015260028201549284019290925260030154606083015290835290920191016200035b565b50505050905090565b33600090815260056020526040902060018101620003e287826200303b565b5060038101620003f386826200303b565b50600481016200040485826200303b565b50426002820155600781016200041b84826200303b565b50600681016200042c83826200303b565b50600354815533600090815260086020526040902060058201906200045290826200311d565b506008810180546001600160a01b031916331790556011805460018181018355600092909252825460099091027f31ecc21a745e3968a04e9570e4425bc18fa8019c68028196b546d1669c200c68810191825583927f31ecc21a745e3968a04e9570e4425bc18fa8019c68028196b546d1669c200c6990910190620004da908401826200311d565b506002820154816002015560038201816003019081620004fb91906200311d565b5060048181019062000510908401826200311d565b5060058181019062000525908401826200311d565b506006818101906200053a908401826200311d565b506007818101906200054f908401826200311d565b50600891820154910180546001600160a01b0319166001600160a01b039092169190911790556003805490600062000587836200320e565b9190505550505050505050565b620005a3600080546001019055565b6000805480825260076020526040909120606081620005c389826200303b565b5060018201620005d488826200303b565b5060028201620005e587826200303b565b5060038201620005f686826200303b565b50600482018490558051620006159060058401906020840190620021e3565b506000600783018190556006830180546001600160a01b031916339081179091558152600960205260408120849055600d8054600181018255915282906008027fd7b6990105719101dabeb77144f2a3385c8033acd3af97e9423a695e81ad1eb501806200068483826200311d565b5060018181019062000699908401826200311d565b50600281810190620006ae908401826200311d565b50600381810190620006c3908401826200311d565b50600482015481600401556005820181600501908054620006e69291906200224d565b5060068281015490820180546001600160a01b0319166001600160a01b0390921691909117905560079182015491015560405183907fcc7ae948ef8cab396e70738555a2a119dd011ace6409fbcdbb4327f87a3d2ef3906200074a90879062002726565b60405180910390a25050505050505050565b60008181526007602052604080822081516101008101909252805483929190829082906200078a9062002f54565b80601f0160208091040260200160405190810160405280929190818152602001828054620007b89062002f54565b8015620008095780601f10620007dd5761010080835404028352916020019162000809565b820191906000526020600020905b815481529060010190602001808311620007eb57829003601f168201915b50505050508152602001600182018054620008249062002f54565b80601f0160208091040260200160405190810160405280929190818152602001828054620008529062002f54565b8015620008a35780601f106200087757610100808354040283529160200191620008a3565b820191906000526020600020905b8154815290600101906020018083116200088557829003601f168201915b50505050508152602001600282018054620008be9062002f54565b80601f0160208091040260200160405190810160405280929190818152602001828054620008ec9062002f54565b80156200093d5780601f1062000911576101008083540402835291602001916200093d565b820191906000526020600020905b8154815290600101906020018083116200091f57829003601f168201915b50505050508152602001600382018054620009589062002f54565b80601f0160208091040260200160405190810160405280929190818152602001828054620009869062002f54565b8015620009d75780601f10620009ab57610100808354040283529160200191620009d7565b820191906000526020600020905b815481529060010190602001808311620009b957829003601f168201915b50505050508152602001600482015481526020016005820180548060200260200160405190810160405280929190818152602001828054801562000a4557602002820191906000526020600020905b81546001600160a01b0316815260019091019060200180831162000a26575b505050918352505060068201546001600160a01b03166020820152600790910154604090910152905060005b8160a001515181101562000ada57846001600160a01b03168260a00151828151811062000aa25762000aa26200322b565b60200260200101516001600160a01b03160362000ac55760019250505062000ae1565b8062000ad1816200320e565b91505062000a71565b5060009150505b92915050565b60606010805480602002602001604051908101604052809291908181526020016000905b82821015620003ba5783829060005260206000209060090201604051806101200160405290816000820154815260200160018201805462000b4c9062002f54565b80601f016020809104026020016040519081016040528092919081815260200182805462000b7a9062002f54565b801562000bcb5780601f1062000b9f5761010080835404028352916020019162000bcb565b820191906000526020600020905b81548152906001019060200180831162000bad57829003601f168201915b5050505050815260200160028201805462000be69062002f54565b80601f016020809104026020016040519081016040528092919081815260200182805462000c149062002f54565b801562000c655780601f1062000c395761010080835404028352916020019162000c65565b820191906000526020600020905b81548152906001019060200180831162000c4757829003601f168201915b5050505050815260200160038201805462000c809062002f54565b80601f016020809104026020016040519081016040528092919081815260200182805462000cae9062002f54565b801562000cff5780601f1062000cd35761010080835404028352916020019162000cff565b820191906000526020600020905b81548152906001019060200180831162000ce157829003601f168201915b5050505050815260200160048201805462000d1a9062002f54565b80601f016020809104026020016040519081016040528092919081815260200182805462000d489062002f54565b801562000d995780601f1062000d6d5761010080835404028352916020019162000d99565b820191906000526020600020905b81548152906001019060200180831162000d7b57829003601f168201915b505050918352505060058201546001600160a01b0316602082015260068201805460409092019162000dcb9062002f54565b80601f016020809104026020016040519081016040528092919081815260200182805462000df99062002f54565b801562000e4a5780601f1062000e1e5761010080835404028352916020019162000e4a565b820191906000526020600020905b81548152906001019060200180831162000e2c57829003601f168201915b5050505050815260200160078201805462000e659062002f54565b80601f016020809104026020016040519081016040528092919081815260200182805462000e939062002f54565b801562000ee45780601f1062000eb85761010080835404028352916020019162000ee4565b820191906000526020600020905b81548152906001019060200180831162000ec657829003601f168201915b505050505081526020016008820154815250508152602001906001019062000b0b565b60606011805480602002602001604051908101604052809291908181526020016000905b82821015620003ba5783829060005260206000209060090201604051806101200160405290816000820154815260200160018201805462000f6c9062002f54565b80601f016020809104026020016040519081016040528092919081815260200182805462000f9a9062002f54565b801562000feb5780601f1062000fbf5761010080835404028352916020019162000feb565b820191906000526020600020905b81548152906001019060200180831162000fcd57829003601f168201915b5050505050815260200160028201548152602001600382018054620010109062002f54565b80601f01602080910402602001604051908101604052809291908181526020018280546200103e9062002f54565b80156200108f5780601f1062001063576101008083540402835291602001916200108f565b820191906000526020600020905b8154815290600101906020018083116200107157829003601f168201915b50505050508152602001600482018054620010aa9062002f54565b80601f0160208091040260200160405190810160405280929190818152602001828054620010d89062002f54565b8015620011295780601f10620010fd5761010080835404028352916020019162001129565b820191906000526020600020905b8154815290600101906020018083116200110b57829003601f168201915b50505050508152602001600582018054620011449062002f54565b80601f0160208091040260200160405190810160405280929190818152602001828054620011729062002f54565b8015620011c35780601f106200119757610100808354040283529160200191620011c3565b820191906000526020600020905b815481529060010190602001808311620011a557829003601f168201915b50505050508152602001600682018054620011de9062002f54565b80601f01602080910402602001604051908101604052809291908181526020018280546200120c9062002f54565b80156200125d5780601f1062001231576101008083540402835291602001916200125d565b820191906000526020600020905b8154815290600101906020018083116200123f57829003601f168201915b50505050508152602001600782018054620012789062002f54565b80601f0160208091040260200160405190810160405280929190818152602001828054620012a69062002f54565b8015620012f75780601f10620012cb57610100808354040283529160200191620012f7565b820191906000526020600020905b815481529060010190602001808311620012d957829003601f168201915b5050509183525050600891909101546001600160a01b0316602091820152908252600192909201910162000f2b565b336000908152600660205260409020600781016200134583826200303b565b50426008820155600281016200135c86826200303b565b506005810180546001600160a01b03191633179055600181016200138187826200303b565b50600381016200139285826200303b565b5060048101620013a384826200303b565b503360009081526008602052604090206006820190620013c490826200311d565b5060048054808355906000620013da836200320e565b90915550506010805460018181018355600092909252825460099091027f1b6847dc741a1b0cd08d278845f9d819d87b734759afb55fe2de5cb82a9ae672810191825583927f1b6847dc741a1b0cd08d278845f9d819d87b734759afb55fe2de5cb82a9ae6739091019062001452908401826200311d565b5060028181019062001467908401826200311d565b506003818101906200147c908401826200311d565b5060048181019062001491908401826200311d565b5060058281015490820180546001600160a01b0319166001600160a01b03909216919091179055600680820190620014cc908401826200311d565b50600781810190620014e1908401826200311d565b50600891820154910155505050505050565b33600090815260096020526040812054908190036200152f5760405162461bcd60e51b8152600401620015269062003278565b60405180910390fd5b600087604051620015409062002290565b6200154c91906200328a565b604051809103906000f08015801562001569573d6000803e3d6000fd5b5090506200157b600280546001019055565b6000600a60006200158b60025490565b8152602081019190915260400160002080546001600160a01b0319166001600160a01b03841617815560025490915060018201556003810188905560068101620015d687826200303b565b5060028101620015e78a826200303b565b5060078101620015f886826200303b565b50600881016200160985826200303b565b506005810187905560048101879055600981018054336001600160a01b031991821617909155600e80546001818101835560009290925283547fbb7b4a454dc3493923482f07822329ed19e8244eff582cc204f8554c3620c3fd600b90920291820180546001600160a01b0390921691909416178355908301547fbb7b4a454dc3493923482f07822329ed19e8244eff582cc204f8554c3620c3fe8201558291907fbb7b4a454dc3493923482f07822329ed19e8244eff582cc204f8554c3620c3ff01620016db60028401826200311d565b50600382015481600301556004820154816004015560058201548160050155600682018160060190816200171091906200311d565b5060078181019062001725908401826200311d565b506008818101906200173a908401826200311d565b5060098281015490820180546001600160a01b0319166001600160a01b03909216919091179055600a80830180546200177792840191906200224d565b505050876200178560025490565b7f103cb41b8f71ac21b5792e993d472e727310a4470d9dde993d890f0634780cf1338a604051620017b89291906200329d565b60405180910390a3505050505050505050565b6000818152600a602052604090206003810154341015620018005760405162461bcd60e51b81526004016200152690620032f1565b6005810154600a820154106200182a5760405162461bcd60e51b8152600401620015269062003338565b600981015460038201546040516001600160a01b039092169181156108fc0291906000818181858888f193505050501580156200186b573d6000803e3d6000fd5b5080546001600160a01b031662001886600180546001019055565b6040517f08e9bd260000000000000000000000000000000000000000000000000000000081526000906001600160a01b038316906308e9bd2690620018d09033906004016200334a565b6020604051808303816000875af1158015620018f0573d6000803e3d6000fd5b505050506040513d601f19601f8201168201806040525081019062001916919062003367565b90506200192260015490565b336000908152600b6020526040812091909155600c816200194260015490565b8152602080820192909252604090810160009081208054336001600160a01b03199182168117835560018084018c8155600a8c01805460028701908155600387018c8155825480860184559289529988209091018054861685179055600f8054938401815590965284547f8d1108e10bcb7c27dddfc02ed9d693a074039d026cf4ea4240b40f7d581ac802600490930292830180546001600160a01b03909216919095161790935591547f8d1108e10bcb7c27dddfc02ed9d693a074039d026cf4ea4240b40f7d581ac80383015592547f8d1108e10bcb7c27dddfc02ed9d693a074039d026cf4ea4240b40f7d581ac80482015593547f8d1108e10bcb7c27dddfc02ed9d693a074039d026cf4ea4240b40f7d581ac805909401939093559051919250839187917fdbaaf4c87ce30816c961a81d110622a3227ede77953d4383d514ff88ab2e0fd39162001a9791906200334a565b60405180910390a35050505050565b6060600e805480602002602001604051908101604052809291908181526020016000905b82821015620003ba5760008481526020908190206040805161016081018252600b860290920180546001600160a01b031683526001810154938301939093526002830180549293929184019162001b219062002f54565b80601f016020809104026020016040519081016040528092919081815260200182805462001b4f9062002f54565b801562001ba05780601f1062001b745761010080835404028352916020019162001ba0565b820191906000526020600020905b81548152906001019060200180831162001b8257829003601f168201915b5050505050815260200160038201548152602001600482015481526020016005820154815260200160068201805462001bd99062002f54565b80601f016020809104026020016040519081016040528092919081815260200182805462001c079062002f54565b801562001c585780601f1062001c2c5761010080835404028352916020019162001c58565b820191906000526020600020905b81548152906001019060200180831162001c3a57829003601f168201915b5050505050815260200160078201805462001c739062002f54565b80601f016020809104026020016040519081016040528092919081815260200182805462001ca19062002f54565b801562001cf25780601f1062001cc65761010080835404028352916020019162001cf2565b820191906000526020600020905b81548152906001019060200180831162001cd457829003601f168201915b5050505050815260200160088201805462001d0d9062002f54565b80601f016020809104026020016040519081016040528092919081815260200182805462001d3b9062002f54565b801562001d8c5780601f1062001d605761010080835404028352916020019162001d8c565b820191906000526020600020905b81548152906001019060200180831162001d6e57829003601f168201915b505050918352505060098201546001600160a01b0316602080830191909152600a83018054604080518285028101850182528281529401939283018282801562001e0057602002820191906000526020600020905b81546001600160a01b0316815260019091019060200180831162001de1575b5050505050815250508152602001906001019062001aca565b60008181526007602090815260408083206005810180546001810182559085529290932090910180546001600160a01b03191633908117909155905183917f06945f0e43f3df149e954649111f2f1b9ecc4879a4c47366ecfcea7501cd6edd9162001e8591906200334a565b60405180910390a25050565b6060600d805480602002602001604051908101604052809291908181526020016000905b82821015620003ba57838290600052602060002090600802016040518061010001604052908160008201805462001eec9062002f54565b80601f016020809104026020016040519081016040528092919081815260200182805462001f1a9062002f54565b801562001f6b5780601f1062001f3f5761010080835404028352916020019162001f6b565b820191906000526020600020905b81548152906001019060200180831162001f4d57829003601f168201915b5050505050815260200160018201805462001f869062002f54565b80601f016020809104026020016040519081016040528092919081815260200182805462001fb49062002f54565b8015620020055780601f1062001fd95761010080835404028352916020019162002005565b820191906000526020600020905b81548152906001019060200180831162001fe757829003601f168201915b50505050508152602001600282018054620020209062002f54565b80601f01602080910402602001604051908101604052809291908181526020018280546200204e9062002f54565b80156200209f5780601f1062002073576101008083540402835291602001916200209f565b820191906000526020600020905b8154815290600101906020018083116200208157829003601f168201915b50505050508152602001600382018054620020ba9062002f54565b80601f0160208091040260200160405190810160405280929190818152602001828054620020e89062002f54565b8015620021395780601f106200210d5761010080835404028352916020019162002139565b820191906000526020600020905b8154815290600101906020018083116200211b57829003601f168201915b505050505081526020016004820154815260200160058201805480602002602001604051908101604052809291908181526020018280548015620021a757602002820191906000526020600020905b81546001600160a01b0316815260019091019060200180831162002188575b505050918352505060068201546001600160a01b0316602080830191909152600790920154604090910152908252600192909201910162001eb5565b8280548282559060005260206000209081019282156200223b579160200282015b828111156200223b57825182546001600160a01b0319166001600160a01b0390911617825560209092019160019091019062002204565b50620022499291506200229e565b5090565b8280548282559060005260206000209081019282156200223b5760005260206000209182015b828111156200223b57825482559160010191906001019062002273565b611990806200338d83390190565b5b808211156200224957600081556001016200229f565b60006001600160a01b03821662000ae1565b620022d281620022b5565b82525050565b80620022d2565b80516080830190620022f28482620022c7565b506020820151620023076020850182620022d8565b5060408201516200231c6040850182620022d8565b506060820151620023316060850182620022d8565b50505050565b6000620023458383620022df565b505060800190565b600062002358825190565b80845260209384019383018060005b83811015620023905781516200237e888262002337565b97506020830192505060010162002367565b509495945050505050565b60208082528101620023ae81846200234d565b9392505050565b634e487b7160e01b600052604160045260246000fd5b601f19601f830116810181811067ffffffffffffffff82111715620023f457620023f4620023b5565b6040525050565b60006200240760405190565b9050620024158282620023cb565b919050565b600067ffffffffffffffff821115620024375762002437620023b5565b601f19601f83011660200192915050565b82818337506000910152565b60006200246b62002465846200241a565b620023fb565b905082815260208101848484011115620024885762002488600080fd5b6200249584828562002448565b509392505050565b600082601f830112620024b357620024b3600080fd5b8135620024c584826020860162002454565b949350505050565b600080600080600060a08688031215620024ea57620024ea600080fd5b853567ffffffffffffffff811115620025065762002506600080fd5b62002514888289016200249d565b955050602086013567ffffffffffffffff811115620025365762002536600080fd5b62002544888289016200249d565b945050604086013567ffffffffffffffff811115620025665762002566600080fd5b62002574888289016200249d565b935050606086013567ffffffffffffffff811115620025965762002596600080fd5b620025a4888289016200249d565b925050608086013567ffffffffffffffff811115620025c657620025c6600080fd5b620025d4888289016200249d565b9150509295509295909350565b805b8114620025ef57600080fd5b50565b803562000ae181620025e1565b600080600080600060a086880312156200261c576200261c600080fd5b853567ffffffffffffffff811115620026385762002638600080fd5b62002646888289016200249d565b955050602086013567ffffffffffffffff811115620026685762002668600080fd5b62002676888289016200249d565b945050604086013567ffffffffffffffff811115620026985762002698600080fd5b620026a6888289016200249d565b935050606086013567ffffffffffffffff811115620026c857620026c8600080fd5b620026d6888289016200249d565b9250506080620025d488828901620025f2565b620025e381620022b5565b803562000ae181620026e9565b600060208284031215620027185762002718600080fd5b6000620024c58484620026f4565b6020810162000ae18284620022d8565b600080604083850312156200274e576200274e600080fd5b60006200275c8585620026f4565b92505060206200276f85828601620025f2565b9150509250929050565b801515620022d2565b6020810162000ae1828462002779565b60005b83811015620027af57818101518382015260200162002795565b50506000910152565b6000620027c3825190565b808452602084019350620027dc81856020860162002792565b601f01601f19169290920192915050565b8051600090610120840190620028048582620022d8565b50602083015184820360208601526200281e8282620027b8565b915050604083015184820360408601526200283a8282620027b8565b91505060608301518482036060860152620028568282620027b8565b91505060808301518482036080860152620028728282620027b8565b91505060a08301516200288960a0860182620022c7565b5060c083015184820360c0860152620028a38282620027b8565b91505060e083015184820360e0860152620028bf8282620027b8565b91505061010083015162002495610100860182620022d8565b6000620023ae8383620027ed565b6000620028f1825190565b808452602084019350836020820285016200290c8560200190565b8060005b858110156200294557848403895281516200292c8582620028d8565b94506020830160209a909a019992505060010162002910565b5091979650505050505050565b60208082528101620023ae8184620028e6565b80516000906101208401906200297c8582620022d8565b5060208301518482036020860152620029968282620027b8565b9150506040830151620029ad6040860182620022d8565b5060608301518482036060860152620029c78282620027b8565b91505060808301518482036080860152620029e38282620027b8565b91505060a083015184820360a0860152620029ff8282620027b8565b91505060c083015184820360c086015262002a1b8282620027b8565b91505060e083015184820360e086015262002a378282620027b8565b91505061010083015162002495610100860182620022c7565b6000620023ae838362002965565b600062002a69825190565b8084526020840193508360208202850162002a848560200190565b8060005b8581101562002945578484038952815162002aa4858262002a50565b94506020830160209a909a019992505060010162002a88565b60208082528101620023ae818462002a5e565b60008060008060008060c0878903121562002aee5762002aee600080fd5b863567ffffffffffffffff81111562002b0a5762002b0a600080fd5b62002b1889828a016200249d565b965050602062002b2b89828a01620025f2565b955050604062002b3e89828a01620025f2565b945050606087013567ffffffffffffffff81111562002b605762002b60600080fd5b62002b6e89828a016200249d565b935050608087013567ffffffffffffffff81111562002b905762002b90600080fd5b62002b9e89828a016200249d565b92505060a087013567ffffffffffffffff81111562002bc05762002bc0600080fd5b62002bce89828a016200249d565b9150509295509295509295565b60006020828403121562002bf25762002bf2600080fd5b6000620024c58484620025f2565b600062002c0e8383620022c7565b505060200190565b600062002c21825190565b80845260209384019383018060005b838110156200239057815162002c47888262002c00565b97506020830192505060010162002c30565b805160009061016084019062002c708582620022c7565b50602083015162002c856020860182620022d8565b506040830151848203604086015262002c9f8282620027b8565b915050606083015162002cb66060860182620022d8565b50608083015162002ccb6080860182620022d8565b5060a083015162002ce060a0860182620022d8565b5060c083015184820360c086015262002cfa8282620027b8565b91505060e083015184820360e086015262002d168282620027b8565b91505061010083015184820361010086015262002d348282620027b8565b91505061012083015162002d4d610120860182620022c7565b5061014083015184820361014086015262002d69828262002c16565b95945050505050565b6000620023ae838362002c59565b600062002d8b825190565b8084526020840193508360208202850162002da68560200190565b8060005b8581101562002945578484038952815162002dc6858262002d72565b94506020830160209a909a019992505060010162002daa565b60208082528101620023ae818462002d80565b80516101008084526000919084019062002e0d8282620027b8565b9150506020830151848203602086015262002e298282620027b8565b9150506040830151848203604086015262002e458282620027b8565b9150506060830151848203606086015262002e618282620027b8565b915050608083015162002e786080860182620022d8565b5060a083015184820360a086015262002e92828262002c16565b91505060c083015162002ea960c0860182620022c7565b5060e08301516200249560e0860182620022d8565b6000620023ae838362002df2565b600062002ed7825190565b8084526020840193508360208202850162002ef28560200190565b8060005b8581101562002945578484038952815162002f12858262002ebe565b94506020830160209a909a019992505060010162002ef6565b60208082528101620023ae818462002ecc565b634e487b7160e01b600052602260045260246000fd5b60028104600182168062002f6957607f821691505b60208210810362002f7e5762002f7e62002f3e565b50919050565b600062000ae162002f928381565b90565b62002fa08362002f84565b81546008840282811b60001990911b908116901990911617825550505050565b600062002fcf81848462002f95565b505050565b8181101562002ff35762002fea60008262002fc0565b60010162002fd4565b5050565b601f82111562002fcf576000818152602090206020601f85010481016020851015620030205750805b620030346020601f86010483018262002fd4565b5050505050565b815167ffffffffffffffff811115620030585762003058620023b5565b62003064825462002f54565b6200307182828562002ff7565b6020601f831160018114620030a957600084156200308f5750858201515b600019600886021c19811660028602175b86555062003108565b600085815260208120601f198616915b82811015620030db5788850151825560209485019460019092019101620030b9565b86831015620030fb57888501516000196008601f8a16021c1981165b8355505b6001600288020188555050505b505050505050565b805462000ae18162002f54565b81810362003129575050565b620031348262003110565b67ffffffffffffffff8111156200314f576200314f620023b5565b6200315b825462002f54565b6200316882828562002ff7565b6000601f8311600181146200319b57600084156200308f575081860154600019600886021c1981166002860217620030a0565b600095865260208087208688529087209096601f19861691905b82811015620031d75788850154825560019485019490910190602001620031b5565b86831015620030fb57888501546000196008601f8a16021c198116620030f7565b634e487b7160e01b600052601160045260246000fd5b60006000198203620032245762003224620031f8565b5060010190565b634e487b7160e01b600052603260045260246000fd5b600f81526000602082017f496e76616c69642063726561746f720000000000000000000000000000000000815291505b5060200190565b6020808252810162000ae18162003241565b60208082528101620023ae8184620027b8565b60408101620032ad8285620022c7565b620023ae6020830184620022d8565b601181526000602082017f4e6f7420656e6f75676820616d6f756e740000000000000000000000000000008152915062003271565b6020808252810162000ae181620032bc565b600a81526000602082017f46756c6c206576656e74000000000000000000000000000000000000000000008152915062003271565b6020808252810162000ae18162003303565b6020810162000ae18284620022c7565b805162000ae181620025e1565b6000602082840312156200337e576200337e600080fd5b6000620024c584846200335a56fe60806040523480156200001157600080fd5b5060405162001990380380620019908339810160408190526200003491620001aa565b60408051808201909152600681526514159153919560d21b602082015281906000620000618382620002ed565b506001620000708282620002ed565b50505050620003bd565b634e487b7160e01b600052604160045260246000fd5b601f19601f83011681018181106001600160401b0382111715620000b857620000b86200007a565b6040525050565b6000620000cb60405190565b9050620000d9828262000090565b919050565b60006001600160401b03821115620000fa57620000fa6200007a565b601f19601f83011660200192915050565b60005b83811015620001285781810151838201526020016200010e565b50506000910152565b6000620001486200014284620000de565b620000bf565b905082815260208101848484011115620001655762000165600080fd5b620001728482856200010b565b509392505050565b600082601f830112620001905762000190600080fd5b8151620001a284826020860162000131565b949350505050565b600060208284031215620001c157620001c1600080fd5b81516001600160401b03811115620001dc57620001dc600080fd5b620001a2848285016200017a565b634e487b7160e01b600052602260045260246000fd5b6002810460018216806200021557607f821691505b6020821081036200022a576200022a620001ea565b50919050565b6000620002416200023e8381565b90565b92915050565b620002528362000230565b81546008840282811b60001990911b908116901990911617825550505050565b60006200028181848462000247565b505050565b81811015620002a5576200029c60008262000272565b60010162000286565b5050565b601f82111562000281576000818152602090206020601f85010481016020851015620002d25750805b620002e66020601f86010483018262000286565b5050505050565b81516001600160401b038111156200030957620003096200007a565b62000315825462000200565b62000322828285620002a9565b6020601f831160018114620003595760008415620003405750858201515b600019600886021c1981166002860217865550620003b5565b600085815260208120601f198616915b828110156200038b578885015182556020948501946001909201910162000369565b86831015620003a85784890151600019601f89166008021c191682555b6001600288020188555050505b505050505050565b6115c380620003cd6000396000f3fe608060405234801561001057600080fd5b50600436106100ea5760003560e01c80636352211e1161008c578063a22cb46511610066578063a22cb465146101d6578063b88d4fde146101e9578063c87b56dd146101fc578063e985e9c51461020f57600080fd5b80636352211e146101a857806370a08231146101bb57806395d89b41146101ce57600080fd5b806308e9bd26116100c857806308e9bd261461014d578063095ea7b31461016d57806323b872dd1461018257806342842e0e1461019557600080fd5b806301ffc9a7146100ef57806306fdde0314610118578063081812fc1461012d575b600080fd5b6101026100fd366004610cec565b61024b565b60405161010f9190610d17565b60405180910390f35b6101206102e8565b60405161010f9190610d7b565b61014061013b366004610d9d565b61037a565b60405161010f9190610dd8565b61016061015b366004610dfa565b6103a1565b60405161010f9190610e21565b61018061017b366004610e2f565b6103c8565b005b610180610190366004610e6c565b610474565b6101806101a3366004610e6c565b6104a5565b6101406101b6366004610d9d565b6104c0565b6101606101c9366004610dfa565b6104f5565b610120610539565b6101806101e4366004610ecf565b610548565b6101806101f7366004610ff5565b610557565b61012061020a366004610d9d565b61058f565b61010261021d366004611074565b6001600160a01b03918216600090815260056020908152604080832093909416825291909152205460ff1690565b60006001600160e01b031982167f80ac58cd0000000000000000000000000000000000000000000000000000000014806102ae57506001600160e01b031982167f5b5e139f00000000000000000000000000000000000000000000000000000000145b806102e257507f01ffc9a7000000000000000000000000000000000000000000000000000000006001600160e01b03198316145b92915050565b6060600080546102f7906110bd565b80601f0160208091040260200160405190810160405280929190818152602001828054610323906110bd565b80156103705780601f1061034557610100808354040283529160200191610370565b820191906000526020600020905b81548152906001019060200180831161035357829003601f168201915b5050505050905090565b600061038582610603565b506000908152600460205260409020546001600160a01b031690565b60006103b1600680546001019055565b60006103bc60065490565b90506102e2838261063a565b60006103d3826104c0565b9050806001600160a01b0316836001600160a01b03160361040f5760405162461bcd60e51b815260040161040690611146565b60405180910390fd5b336001600160a01b038216148061044957506001600160a01b038116600090815260056020908152604080832033845290915290205460ff165b6104655760405162461bcd60e51b8152600401610406906111b0565b61046f8383610742565b505050565b61047e33826107bd565b61049a5760405162461bcd60e51b81526004016104069061121a565b61046f83838361083c565b61046f83838360405180602001604052806000815250610557565b6000818152600260205260408120546001600160a01b0316806102e25760405162461bcd60e51b815260040161040690611261565b60006001600160a01b03821661051d5760405162461bcd60e51b8152600401610406906112cb565b506001600160a01b031660009081526003602052604090205490565b6060600180546102f7906110bd565b610553338383610971565b5050565b61056133836107bd565b61057d5760405162461bcd60e51b81526004016104069061121a565b61058984848484610a13565b50505050565b606061059a82610603565b60006105b160408051602081019091526000815290565b905060008151116105d157604051806020016040528060008152506105fc565b806105db84610a46565b6040516020016105ec9291906112fd565b6040516020818303038152906040525b9392505050565b6000818152600260205260409020546001600160a01b03166106375760405162461bcd60e51b815260040161040690611261565b50565b6001600160a01b0382166106605760405162461bcd60e51b815260040161040690611347565b6000818152600260205260409020546001600160a01b0316156106955760405162461bcd60e51b81526004016104069061138b565b6000818152600260205260409020546001600160a01b0316156106ca5760405162461bcd60e51b81526004016104069061138b565b6001600160a01b0382166000818152600360209081526040808320805460010190558483526002909152808220805473ffffffffffffffffffffffffffffffffffffffff19168417905551839291907fddf252ad1be2c89b69c2b068fc378daa952ba7f163c4a11628f55a4df523b3ef908290a45050565b6000818152600460205260409020805473ffffffffffffffffffffffffffffffffffffffff19166001600160a01b0384169081179091558190610784826104c0565b6001600160a01b03167f8c5be1e5ebec7d5bd14f71427d1e84f3dd0314c0f7b2291e5b200ac8c7c3b92560405160405180910390a45050565b6000806107c9836104c0565b9050806001600160a01b0316846001600160a01b0316148061081057506001600160a01b0380821660009081526005602090815260408083209388168352929052205460ff165b806108345750836001600160a01b03166108298461037a565b6001600160a01b0316145b949350505050565b826001600160a01b031661084f826104c0565b6001600160a01b0316146108755760405162461bcd60e51b8152600401610406906113f5565b6001600160a01b03821661089b5760405162461bcd60e51b81526004016104069061145f565b826001600160a01b03166108ae826104c0565b6001600160a01b0316146108d45760405162461bcd60e51b8152600401610406906113f5565b6000818152600460209081526040808320805473ffffffffffffffffffffffffffffffffffffffff199081169091556001600160a01b0387811680865260038552838620805460001901905590871680865283862080546001019055868652600290945282852080549092168417909155905184937fddf252ad1be2c89b69c2b068fc378daa952ba7f163c4a11628f55a4df523b3ef91a4505050565b816001600160a01b0316836001600160a01b0316036109a25760405162461bcd60e51b8152600401610406906114a3565b6001600160a01b0383811660008181526005602090815260408083209487168084529490915290819020805460ff1916851515179055517f17307eab39ab6107e8899845ad3d59bd9653f200f220920489ca2b5937696c3190610a06908590610d17565b60405180910390a3505050565b610a1e84848461083c565b610a2a84848484610ae7565b6105895760405162461bcd60e51b81526004016104069061150d565b60606000610a5383610be8565b600101905060008167ffffffffffffffff811115610a7357610a73610f02565b6040519080825280601f01601f191660200182016040528015610a9d576020820181803683370190505b5090508181016020015b600019017f3031323334353637383961626364656600000000000000000000000000000000600a86061a8153600a8504945084610aa7575b509392505050565b60006001600160a01b0384163b15610bdd57604051630a85bd0160e11b81526001600160a01b0385169063150b7a0290610b2b90339089908890889060040161151d565b6020604051808303816000875af1925050508015610b66575060408051601f3d908101601f19168201909252610b639181019061156c565b60015b610bc3573d808015610b94576040519150601f19603f3d011682016040523d82523d6000602084013e610b99565b606091505b508051600003610bbb5760405162461bcd60e51b81526004016104069061150d565b805181602001fd5b6001600160e01b031916630a85bd0160e11b149050610834565b506001949350505050565b6000807a184f03e93ff9f4daa797ed6e38ed64bf6a1f0100000000000000008310610c31577a184f03e93ff9f4daa797ed6e38ed64bf6a1f010000000000000000830492506040015b6d04ee2d6d415b85acef81000000008310610c5d576d04ee2d6d415b85acef8100000000830492506020015b662386f26fc100008310610c7b57662386f26fc10000830492506010015b6305f5e1008310610c93576305f5e100830492506008015b6127108310610ca757612710830492506004015b60648310610cb9576064830492506002015b600a83106102e25760010192915050565b6001600160e01b031981165b811461063757600080fd5b80356102e281610cca565b600060208284031215610d0157610d01600080fd5b60006108348484610ce1565b8015155b82525050565b602081016102e28284610d0d565b60005b83811015610d40578181015183820152602001610d28565b50506000910152565b6000610d53825190565b808452602084019350610d6a818560208601610d25565b601f01601f19169290920192915050565b602080825281016105fc8184610d49565b80610cd6565b80356102e281610d8c565b600060208284031215610db257610db2600080fd5b60006108348484610d92565b60006001600160a01b0382166102e2565b610d1181610dbe565b602081016102e28284610dcf565b610cd681610dbe565b80356102e281610de6565b600060208284031215610e0f57610e0f600080fd5b60006108348484610def565b80610d11565b602081016102e28284610e1b565b60008060408385031215610e4557610e45600080fd5b6000610e518585610def565b9250506020610e6285828601610d92565b9150509250929050565b600080600060608486031215610e8457610e84600080fd5b6000610e908686610def565b9350506020610ea186828701610def565b9250506040610eb286828701610d92565b9150509250925092565b801515610cd6565b80356102e281610ebc565b60008060408385031215610ee557610ee5600080fd5b6000610ef18585610def565b9250506020610e6285828601610ec4565b634e487b7160e01b600052604160045260246000fd5b601f19601f830116810181811067ffffffffffffffff82111715610f3e57610f3e610f02565b6040525050565b6000610f5060405190565b9050610f5c8282610f18565b919050565b600067ffffffffffffffff821115610f7b57610f7b610f02565b601f19601f83011660200192915050565b82818337506000910152565b6000610fab610fa684610f61565b610f45565b905082815260208101848484011115610fc657610fc6600080fd5b610adf848285610f8c565b600082601f830112610fe557610fe5600080fd5b8135610834848260208601610f98565b6000806000806080858703121561100e5761100e600080fd5b600061101a8787610def565b945050602061102b87828801610def565b935050604061103c87828801610d92565b925050606085013567ffffffffffffffff81111561105c5761105c600080fd5b61106887828801610fd1565b91505092959194509250565b6000806040838503121561108a5761108a600080fd5b60006110968585610def565b9250506020610e6285828601610def565b634e487b7160e01b600052602260045260246000fd5b6002810460018216806110d157607f821691505b6020821081036110e3576110e36110a7565b50919050565b602181526000602082017f4552433732313a20617070726f76616c20746f2063757272656e74206f776e6581527f7200000000000000000000000000000000000000000000000000000000000000602082015291505b5060400190565b602080825281016102e2816110e9565b603d81526000602082017f4552433732313a20617070726f76652063616c6c6572206973206e6f7420746f81527f6b656e206f776e6572206f7220617070726f76656420666f7220616c6c0000006020820152915061113f565b602080825281016102e281611156565b602d81526000602082017f4552433732313a2063616c6c6572206973206e6f7420746f6b656e206f776e6581527f72206f7220617070726f766564000000000000000000000000000000000000006020820152915061113f565b602080825281016102e2816111c0565b601881526000602082017f4552433732313a20696e76616c696420746f6b656e2049440000000000000000815291505b5060200190565b602080825281016102e28161122a565b602981526000602082017f4552433732313a2061646472657373207a65726f206973206e6f74206120766181527f6c6964206f776e657200000000000000000000000000000000000000000000006020820152915061113f565b602080825281016102e281611271565b60006112e5825190565b6112f3818560208601610d25565b9290920192915050565b600061130982856112db565b915061083482846112db565b60208082527f4552433732313a206d696e7420746f20746865207a65726f20616464726573739101908152600061125a565b602080825281016102e281611315565b601c81526000602082017f4552433732313a20746f6b656e20616c7265616479206d696e746564000000008152915061125a565b602080825281016102e281611357565b602581526000602082017f4552433732313a207472616e736665722066726f6d20696e636f72726563742081527f6f776e65720000000000000000000000000000000000000000000000000000006020820152915061113f565b602080825281016102e28161139b565b602481526000602082017f4552433732313a207472616e7366657220746f20746865207a65726f2061646481527f72657373000000000000000000000000000000000000000000000000000000006020820152915061113f565b602080825281016102e281611405565b601981526000602082017f4552433732313a20617070726f766520746f2063616c6c6572000000000000008152915061125a565b602080825281016102e28161146f565b603281526000602082017f4552433732313a207472616e7366657220746f206e6f6e20455243373231526581527f63656976657220696d706c656d656e74657200000000000000000000000000006020820152915061113f565b602080825281016102e2816114b3565b6080810161152b8287610dcf565b6115386020830186610dcf565b6115456040830185610e1b565b81810360608301526115578184610d49565b9695505050505050565b80516102e281610cca565b60006020828403121561158157611581600080fd5b6000610834848461156156fea26469706673582212201e2c88d70afceb950bfbedaafc9c0ecfecd2cb3ce5db3d36a68f71c9c4dc81bd64736f6c63430008110033a2646970667358221220822b7dd91148fbaa79ce7ac2d2e39897af716e26ce27b7c874dfe3caab1656dd64736f6c63430008110033",
  "linkReferences": {},
  "deployedLinkReferences": {}
}