{
  "_format": "hh-sol-artifact-1",
  "contractName": "Polyverse",
  "sourceName": "contracts/basic-solidity-examples/Polyverse.sol",
  "abi": [
    {
      "anonymous": false,
      "inputs": [
        {
          "indexed": true,
          "internalType": "uint256",
          "name": "id",
          "type": "uint256"
        },
        {
          "indexed": false,
          "internalType": "uint256",
          "name": "subscriptionFee",
          "type": "uint256"
        }
      ],
      "name": "CreatorAdded",
      "type": "event"
    },
    {
      "anonymous": false,
      "inputs": [
        {
          "indexed": true,
          "internalType": "uint256",
          "name": "eventId",
          "type": "uint256"
        },
        {
          "indexed": false,
          "internalType": "address",
          "name": "owner",
          "type": "address"
        },
        {
          "indexed": false,
          "internalType": "uint256",
          "name": "maxParticipants",
          "type": "uint256"
        },
        {
          "indexed": true,
          "internalType": "uint256",
          "name": "ticketPrice",
          "type": "uint256"
        }
      ],
      "name": "EventCreated",
      "type": "event"
    },
    {
      "anonymous": false,
      "inputs": [
        {
          "indexed": true,
          "internalType": "uint256",
          "name": "id",
          "type": "uint256"
        },
        {
          "indexed": false,
          "internalType": "address",
          "name": "subscriber",
          "type": "address"
        }
      ],
      "name": "SubscribedToCreator",
      "type": "event"
    },
    {
      "anonymous": false,
      "inputs": [
        {
          "indexed": true,
          "internalType": "uint256",
          "name": "eventId",
          "type": "uint256"
        },
        {
          "indexed": false,
          "internalType": "address",
          "name": "buyer",
          "type": "address"
        },
        {
          "indexed": true,
          "internalType": "uint256",
          "name": "ticketNFTId",
          "type": "uint256"
        }
      ],
      "name": "TicketPurchased",
      "type": "event"
    },
    {
      "inputs": [
        {
          "internalType": "address",
          "name": "",
          "type": "address"
        }
      ],
      "name": "_addressToCreatorId",
      "outputs": [
        {
          "internalType": "uint256",
          "name": "",
          "type": "uint256"
        }
      ],
      "stateMutability": "view",
      "type": "function"
    },
    {
      "inputs": [
        {
          "internalType": "address",
          "name": "",
          "type": "address"
        }
      ],
      "name": "_userToTicketId",
      "outputs": [
        {
          "internalType": "uint256",
          "name": "",
          "type": "uint256"
        }
      ],
      "stateMutability": "view",
      "type": "function"
    },
    {
      "inputs": [
        {
          "internalType": "string",
          "name": "_name",
          "type": "string"
        },
        {
          "internalType": "string",
          "name": "_imagepath",
          "type": "string"
        },
        {
          "internalType": "string",
          "name": "_category",
          "type": "string"
        },
        {
          "internalType": "string",
          "name": "_bio",
          "type": "string"
        },
        {
          "internalType": "uint256",
          "name": "_subscriptionFee",
          "type": "uint256"
        }
      ],
      "name": "addCreator",
      "outputs": [],
      "stateMutability": "nonpayable",
      "type": "function"
    },
    {
      "inputs": [],
      "name": "getAllCreators",
      "outputs": [
        {
          "components": [
            {
              "internalType": "string",
              "name": "name",
              "type": "string"
            },
            {
              "internalType": "string",
              "name": "imageIpfs",
              "type": "string"
            },
            {
              "internalType": "string",
              "name": "category",
              "type": "string"
            },
            {
              "internalType": "string",
              "name": "bio",
              "type": "string"
            },
            {
              "internalType": "uint256",
              "name": "subscriptionFee",
              "type": "uint256"
            },
            {
              "internalType": "address[]",
              "name": "subscribers",
              "type": "address[]"
            },
            {
              "internalType": "address",
              "name": "owner",
              "type": "address"
            },
            {
              "internalType": "uint256",
              "name": "balance",
              "type": "uint256"
            }
          ],
          "internalType": "struct Polyverse.Creator[]",
          "name": "",
          "type": "tuple[]"
        }
      ],
      "stateMutability": "view",
      "type": "function"
    },
    {
      "inputs": [],
      "name": "getAllEvents",
      "outputs": [
        {
          "components": [
            {
              "internalType": "address",
              "name": "eventNFT",
              "type": "address"
            },
            {
              "internalType": "uint256",
              "name": "id",
              "type": "uint256"
            },
            {
              "internalType": "string",
              "name": "name",
              "type": "string"
            },
            {
              "internalType": "uint256",
              "name": "cost",
              "type": "uint256"
            },
            {
              "internalType": "uint256",
              "name": "tickets",
              "type": "uint256"
            },
            {
              "internalType": "uint256",
              "name": "maxTickets",
              "type": "uint256"
            },
            {
              "internalType": "string",
              "name": "date",
              "type": "string"
            },
            {
              "internalType": "string",
              "name": "time",
              "type": "string"
            },
            {
              "internalType": "string",
              "name": "location",
              "type": "string"
            },
            {
              "internalType": "address",
              "name": "owner",
              "type": "address"
            },
            {
              "internalType": "address[]",
              "name": "participants",
              "type": "address[]"
            },
            {
              "internalType": "string",
              "name": "image",
              "type": "string"
            },
            {
              "internalType": "string",
              "name": "description",
              "type": "string"
            }
          ],
          "internalType": "struct Polyverse.Event[]",
          "name": "",
          "type": "tuple[]"
        }
      ],
      "stateMutability": "view",
      "type": "function"
    },
    {
      "inputs": [],
      "name": "getAllMusic",
      "outputs": [
        {
          "components": [
            {
              "internalType": "uint256",
              "name": "id",
              "type": "uint256"
            },
            {
              "internalType": "string",
              "name": "title",
              "type": "string"
            },
            {
              "internalType": "uint256",
              "name": "createdAt",
              "type": "uint256"
            },
            {
              "internalType": "string",
              "name": "musicFile",
              "type": "string"
            },
            {
              "internalType": "string",
              "name": "image",
              "type": "string"
            },
            {
              "internalType": "string",
              "name": "name",
              "type": "string"
            },
            {
              "internalType": "string",
              "name": "feature",
              "type": "string"
            },
            {
              "internalType": "string",
              "name": "category",
              "type": "string"
            },
            {
              "internalType": "address",
              "name": "owner",
              "type": "address"
            }
          ],
          "internalType": "struct Polyverse.Music[]",
          "name": "",
          "type": "tuple[]"
        }
      ],
      "stateMutability": "view",
      "type": "function"
    },
    {
      "inputs": [],
      "name": "getAllTickets",
      "outputs": [
        {
          "components": [
            {
              "internalType": "address",
              "name": "owner",
              "type": "address"
            },
            {
              "internalType": "uint256",
              "name": "eventId",
              "type": "uint256"
            },
            {
              "internalType": "uint256",
              "name": "seatNumber",
              "type": "uint256"
            },
            {
              "internalType": "uint256",
              "name": "ticketNFTId",
              "type": "uint256"
            }
          ],
          "internalType": "struct Polyverse.Ticket[]",
          "name": "",
          "type": "tuple[]"
        }
      ],
      "stateMutability": "view",
      "type": "function"
    },
    {
      "inputs": [],
      "name": "getAllVideo",
      "outputs": [
        {
          "components": [
            {
              "internalType": "uint256",
              "name": "id",
              "type": "uint256"
            },
            {
              "internalType": "string",
              "name": "title",
              "type": "string"
            },
            {
              "internalType": "string",
              "name": "description",
              "type": "string"
            },
            {
              "internalType": "string",
              "name": "videoFile",
              "type": "string"
            },
            {
              "internalType": "string",
              "name": "image",
              "type": "string"
            },
            {
              "internalType": "address",
              "name": "owner",
              "type": "address"
            },
            {
              "internalType": "string",
              "name": "name",
              "type": "string"
            },
            {
              "internalType": "string",
              "name": "category",
              "type": "string"
            },
            {
              "internalType": "uint256",
              "name": "createdAt",
              "type": "uint256"
            }
          ],
          "internalType": "struct Polyverse.Video[]",
          "name": "",
          "type": "tuple[]"
        }
      ],
      "stateMutability": "view",
      "type": "function"
    },
    {
      "inputs": [
        {
          "internalType": "address",
          "name": "subscriber",
          "type": "address"
        },
        {
          "internalType": "uint256",
          "name": "creatorId",
          "type": "uint256"
        }
      ],
      "name": "isSubscribedToCreator",
      "outputs": [
        {
          "internalType": "bool",
          "name": "",
          "type": "bool"
        }
      ],
      "stateMutability": "view",
      "type": "function"
    },
    {
      "inputs": [
        {
          "internalType": "string",
          "name": "_name",
          "type": "string"
        },
        {
          "internalType": "uint256",
          "name": "_cost",
          "type": "uint256"
        },
        {
          "internalType": "uint256",
          "name": "_maxTickets",
          "type": "uint256"
        },
        {
          "internalType": "string",
          "name": "_date",
          "type": "string"
        },
        {
          "internalType": "string",
          "name": "_time",
          "type": "string"
        },
        {
          "internalType": "string",
          "name": "_location",
          "type": "string"
        },
        {
          "internalType": "string",
          "name": "_image",
          "type": "string"
        },
        {
          "internalType": "string",
          "name": "_description",
          "type": "string"
        }
      ],
      "name": "listEvent",
      "outputs": [],
      "stateMutability": "nonpayable",
      "type": "function"
    },
    {
      "inputs": [
        {
          "internalType": "uint256",
          "name": "eventId",
          "type": "uint256"
        }
      ],
      "name": "purchaseTicket",
      "outputs": [],
      "stateMutability": "payable",
      "type": "function"
    },
    {
      "inputs": [
        {
          "internalType": "uint256",
          "name": "creatorId",
          "type": "uint256"
        }
      ],
      "name": "subscribeToCreator",
      "outputs": [],
      "stateMutability": "nonpayable",
      "type": "function"
    },
    {
      "inputs": [
        {
          "internalType": "string",
          "name": "_title",
          "type": "string"
        },
        {
          "internalType": "string",
          "name": "_musicFile",
          "type": "string"
        },
        {
          "internalType": "string",
          "name": "_image",
          "type": "string"
        },
        {
          "internalType": "string",
          "name": "_category",
          "type": "string"
        },
        {
          "internalType": "string",
          "name": "features",
          "type": "string"
        }
      ],
      "name": "uploadAMusic",
      "outputs": [],
      "stateMutability": "nonpayable",
      "type": "function"
    },
    {
      "inputs": [
        {
          "internalType": "string",
          "name": "_title",
          "type": "string"
        },
        {
          "internalType": "string",
          "name": "_description",
          "type": "string"
        },
        {
          "internalType": "string",
          "name": "_videoFile",
          "type": "string"
        },
        {
          "internalType": "string",
          "name": "_image",
          "type": "string"
        },
        {
          "internalType": "string",
          "name": "_category",
          "type": "string"
        }
      ],
      "name": "uploadAVideo",
      "outputs": [],
      "stateMutability": "nonpayable",
      "type": "function"
    }
  ],
  "bytecode": "0x608060405234801561001057600080fd5b50614f7b806100206000396000f3fe608060405260043610620000ef5760003560e01c80634f23bba41162000089578063c27a500d1162000060578063c27a500d146200029f578063dd5f1fb514620002c6578063deb2d19d14620002eb578063f97fac4d146200031057600080fd5b80634f23bba41462000232578063b948348c1462000257578063c193736b146200026e57600080fd5b8063135b40e511620000ca578063135b40e5146200017057806321ebf5d514620001b0578063270816e514620001e45780634a4b6656146200020b57600080fd5b806303e96fe314620000f457806304d120e31462000124578063097f46d1146200014b575b600080fd5b3480156200010157600080fd5b506200010c62000337565b6040516200011b919062002521565b60405180910390f35b3480156200013157600080fd5b50620001496200014336600462002653565b620003c3565b005b3480156200015857600080fd5b50620001496200016a36600462002785565b62000594565b3480156200017d57600080fd5b50620001a16200018f36600462002887565b600b6020526000908152604090205481565b6040516200011b9190620028ac565b348015620001bd57600080fd5b50620001d5620001cf366004620028bc565b6200075c565b6040516200011b919062002908565b348015620001f157600080fd5b50620001fc62000ae7565b6040516200011b919062002ad8565b3480156200021857600080fd5b506200022362000f07565b6040516200011b919062002c43565b3480156200023f57600080fd5b50620001496200025136600462002653565b62001326565b620001496200026836600462002c56565b620014f3565b3480156200027b57600080fd5b50620001a16200028d36600462002887565b60096020526000908152604090205481565b348015620002ac57600080fd5b50620002b7620017d7565b6040516200011b919062002e96565b348015620002d357600080fd5b5062000149620002e536600462002c56565b62001c7e565b348015620002f857600080fd5b50620001496200030a36600462002ea9565b62001cf6565b3480156200031d57600080fd5b506200032862002017565b6040516200011b919062003154565b6060600f805480602002602001604051908101604052809291908181526020016000905b82821015620003ba576000848152602090819020604080516080810182526004860290920180546001600160a01b031683526001808201548486015260028201549284019290925260030154606083015290835290920191016200035b565b50505050905090565b33600090815260056020526040902060018101620003e2878262003264565b5060038101620003f3868262003264565b506004810162000404858262003264565b50426002820155600781016200041b848262003264565b50600681016200042c838262003264565b506003548155336000908152600860205260409020600582019062000452908262003346565b506008810180546001600160a01b031916331790556011805460018181018355600092909252825460099091027f31ecc21a745e3968a04e9570e4425bc18fa8019c68028196b546d1669c200c68810191825583927f31ecc21a745e3968a04e9570e4425bc18fa8019c68028196b546d1669c200c6990910190620004da9084018262003346565b506002820154816002015560038201816003019081620004fb919062003346565b50600481810190620005109084018262003346565b50600581810190620005259084018262003346565b506006818101906200053a9084018262003346565b506007818101906200054f9084018262003346565b50600891820154910180546001600160a01b0319166001600160a01b0390921691909117905560038054906000620005878362003437565b9190505550505050505050565b620005a3600080546001019055565b6000805480825260076020526040909120606081620005c3898262003264565b5060018201620005d4888262003264565b5060028201620005e5878262003264565b5060038201620005f6868262003264565b5060048201849055805162000615906005840190602084019062002369565b506000600783018190556006830180546001600160a01b031916339081179091558152600960205260408120849055600d8054600181018255915282906008027fd7b6990105719101dabeb77144f2a3385c8033acd3af97e9423a695e81ad1eb5018062000684838262003346565b50600181810190620006999084018262003346565b50600281810190620006ae9084018262003346565b50600381810190620006c39084018262003346565b50600482015481600401556005820181600501908054620006e6929190620023d3565b5060068281015490820180546001600160a01b0319166001600160a01b0390921691909117905560079182015491015560405183907fcc7ae948ef8cab396e70738555a2a119dd011ace6409fbcdbb4327f87a3d2ef3906200074a908790620028ac565b60405180910390a25050505050505050565b60008181526007602052604080822081516101008101909252805483929190829082906200078a906200317d565b80601f0160208091040260200160405190810160405280929190818152602001828054620007b8906200317d565b8015620008095780601f10620007dd5761010080835404028352916020019162000809565b820191906000526020600020905b815481529060010190602001808311620007eb57829003601f168201915b5050505050815260200160018201805462000824906200317d565b80601f016020809104026020016040519081016040528092919081815260200182805462000852906200317d565b8015620008a35780601f106200087757610100808354040283529160200191620008a3565b820191906000526020600020905b8154815290600101906020018083116200088557829003601f168201915b50505050508152602001600282018054620008be906200317d565b80601f0160208091040260200160405190810160405280929190818152602001828054620008ec906200317d565b80156200093d5780601f1062000911576101008083540402835291602001916200093d565b820191906000526020600020905b8154815290600101906020018083116200091f57829003601f168201915b5050505050815260200160038201805462000958906200317d565b80601f016020809104026020016040519081016040528092919081815260200182805462000986906200317d565b8015620009d75780601f10620009ab57610100808354040283529160200191620009d7565b820191906000526020600020905b815481529060010190602001808311620009b957829003601f168201915b50505050508152602001600482015481526020016005820180548060200260200160405190810160405280929190818152602001828054801562000a4557602002820191906000526020600020905b81546001600160a01b0316815260019091019060200180831162000a26575b505050918352505060068201546001600160a01b03166020820152600790910154604090910152905060005b8160a001515181101562000ada57846001600160a01b03168260a00151828151811062000aa25762000aa262003454565b60200260200101516001600160a01b03160362000ac55760019250505062000ae1565b8062000ad18162003437565b91505062000a71565b5060009150505b92915050565b60606010805480602002602001604051908101604052809291908181526020016000905b82821015620003ba5783829060005260206000209060090201604051806101200160405290816000820154815260200160018201805462000b4c906200317d565b80601f016020809104026020016040519081016040528092919081815260200182805462000b7a906200317d565b801562000bcb5780601f1062000b9f5761010080835404028352916020019162000bcb565b820191906000526020600020905b81548152906001019060200180831162000bad57829003601f168201915b5050505050815260200160028201805462000be6906200317d565b80601f016020809104026020016040519081016040528092919081815260200182805462000c14906200317d565b801562000c655780601f1062000c395761010080835404028352916020019162000c65565b820191906000526020600020905b81548152906001019060200180831162000c4757829003601f168201915b5050505050815260200160038201805462000c80906200317d565b80601f016020809104026020016040519081016040528092919081815260200182805462000cae906200317d565b801562000cff5780601f1062000cd35761010080835404028352916020019162000cff565b820191906000526020600020905b81548152906001019060200180831162000ce157829003601f168201915b5050505050815260200160048201805462000d1a906200317d565b80601f016020809104026020016040519081016040528092919081815260200182805462000d48906200317d565b801562000d995780601f1062000d6d5761010080835404028352916020019162000d99565b820191906000526020600020905b81548152906001019060200180831162000d7b57829003601f168201915b505050918352505060058201546001600160a01b0316602082015260068201805460409092019162000dcb906200317d565b80601f016020809104026020016040519081016040528092919081815260200182805462000df9906200317d565b801562000e4a5780601f1062000e1e5761010080835404028352916020019162000e4a565b820191906000526020600020905b81548152906001019060200180831162000e2c57829003601f168201915b5050505050815260200160078201805462000e65906200317d565b80601f016020809104026020016040519081016040528092919081815260200182805462000e93906200317d565b801562000ee45780601f1062000eb85761010080835404028352916020019162000ee4565b820191906000526020600020905b81548152906001019060200180831162000ec657829003601f168201915b505050505081526020016008820154815250508152602001906001019062000b0b565b60606011805480602002602001604051908101604052809291908181526020016000905b82821015620003ba5783829060005260206000209060090201604051806101200160405290816000820154815260200160018201805462000f6c906200317d565b80601f016020809104026020016040519081016040528092919081815260200182805462000f9a906200317d565b801562000feb5780601f1062000fbf5761010080835404028352916020019162000feb565b820191906000526020600020905b81548152906001019060200180831162000fcd57829003601f168201915b505050505081526020016002820154815260200160038201805462001010906200317d565b80601f01602080910402602001604051908101604052809291908181526020018280546200103e906200317d565b80156200108f5780601f1062001063576101008083540402835291602001916200108f565b820191906000526020600020905b8154815290600101906020018083116200107157829003601f168201915b50505050508152602001600482018054620010aa906200317d565b80601f0160208091040260200160405190810160405280929190818152602001828054620010d8906200317d565b8015620011295780601f10620010fd5761010080835404028352916020019162001129565b820191906000526020600020905b8154815290600101906020018083116200110b57829003601f168201915b5050505050815260200160058201805462001144906200317d565b80601f016020809104026020016040519081016040528092919081815260200182805462001172906200317d565b8015620011c35780601f106200119757610100808354040283529160200191620011c3565b820191906000526020600020905b815481529060010190602001808311620011a557829003601f168201915b50505050508152602001600682018054620011de906200317d565b80601f01602080910402602001604051908101604052809291908181526020018280546200120c906200317d565b80156200125d5780601f1062001231576101008083540402835291602001916200125d565b820191906000526020600020905b8154815290600101906020018083116200123f57829003601f168201915b5050505050815260200160078201805462001278906200317d565b80601f0160208091040260200160405190810160405280929190818152602001828054620012a6906200317d565b8015620012f75780601f10620012cb57610100808354040283529160200191620012f7565b820191906000526020600020905b815481529060010190602001808311620012d957829003601f168201915b5050509183525050600891909101546001600160a01b0316602091820152908252600192909201910162000f2b565b3360009081526006602052604090206007810162001345838262003264565b50426008820155600281016200135c868262003264565b506005810180546001600160a01b031916331790556001810162001381878262003264565b506003810162001392858262003264565b5060048101620013a3848262003264565b503360009081526008602052604090206006820190620013c4908262003346565b5060048054808355906000620013da8362003437565b90915550506010805460018181018355600092909252825460099091027f1b6847dc741a1b0cd08d278845f9d819d87b734759afb55fe2de5cb82a9ae672810191825583927f1b6847dc741a1b0cd08d278845f9d819d87b734759afb55fe2de5cb82a9ae67390910190620014529084018262003346565b50600281810190620014679084018262003346565b506003818101906200147c9084018262003346565b50600481810190620014919084018262003346565b5060058281015490820180546001600160a01b0319166001600160a01b03909216919091179055600680820190620014cc9084018262003346565b50600781810190620014e19084018262003346565b50600891820154910155505050505050565b6000818152600a602052604090206003810154341015620015315760405162461bcd60e51b81526004016200152890620034a1565b60405180910390fd5b6005810154600a820154106200155b5760405162461bcd60e51b81526004016200152890620034e8565b600981015460038201546040516001600160a01b039092169181156108fc0291906000818181858888f193505050501580156200159c573d6000803e3d6000fd5b5080546001600160a01b0316620015b7600180546001019055565b6040517f08e9bd260000000000000000000000000000000000000000000000000000000081526000906001600160a01b038316906308e9bd269062001601903390600401620034fa565b6020604051808303816000875af115801562001621573d6000803e3d6000fd5b505050506040513d601f19601f8201168201806040525081019062001647919062003517565b90506200165360015490565b336000908152600b6020526040812091909155600c816200167360015490565b8152602080820192909252604090810160009081208054336001600160a01b03199182168117835560018084018c8155600a8c01805460028701908155600387018c8155825480860184559289529988209091018054861685179055600f8054938401815590965284547f8d1108e10bcb7c27dddfc02ed9d693a074039d026cf4ea4240b40f7d581ac802600490930292830180546001600160a01b03909216919095161790935591547f8d1108e10bcb7c27dddfc02ed9d693a074039d026cf4ea4240b40f7d581ac80383015592547f8d1108e10bcb7c27dddfc02ed9d693a074039d026cf4ea4240b40f7d581ac80482015593547f8d1108e10bcb7c27dddfc02ed9d693a074039d026cf4ea4240b40f7d581ac805909401939093559051919250839187917fdbaaf4c87ce30816c961a81d110622a3227ede77953d4383d514ff88ab2e0fd391620017c89190620034fa565b60405180910390a35050505050565b6060600e805480602002602001604051908101604052809291908181526020016000905b82821015620003ba576000848152602090819020604080516101a081018252600d860290920180546001600160a01b031683526001810154938301939093526002830180549293929184019162001852906200317d565b80601f016020809104026020016040519081016040528092919081815260200182805462001880906200317d565b8015620018d15780601f10620018a557610100808354040283529160200191620018d1565b820191906000526020600020905b815481529060010190602001808311620018b357829003601f168201915b505050505081526020016003820154815260200160048201548152602001600582015481526020016006820180546200190a906200317d565b80601f016020809104026020016040519081016040528092919081815260200182805462001938906200317d565b8015620019895780601f106200195d5761010080835404028352916020019162001989565b820191906000526020600020905b8154815290600101906020018083116200196b57829003601f168201915b50505050508152602001600782018054620019a4906200317d565b80601f0160208091040260200160405190810160405280929190818152602001828054620019d2906200317d565b801562001a235780601f10620019f75761010080835404028352916020019162001a23565b820191906000526020600020905b81548152906001019060200180831162001a0557829003601f168201915b5050505050815260200160088201805462001a3e906200317d565b80601f016020809104026020016040519081016040528092919081815260200182805462001a6c906200317d565b801562001abd5780601f1062001a915761010080835404028352916020019162001abd565b820191906000526020600020905b81548152906001019060200180831162001a9f57829003601f168201915b505050918352505060098201546001600160a01b0316602080830191909152600a83018054604080518285028101850182528281529401939283018282801562001b3157602002820191906000526020600020905b81546001600160a01b0316815260019091019060200180831162001b12575b50505050508152602001600b8201805462001b4c906200317d565b80601f016020809104026020016040519081016040528092919081815260200182805462001b7a906200317d565b801562001bcb5780601f1062001b9f5761010080835404028352916020019162001bcb565b820191906000526020600020905b81548152906001019060200180831162001bad57829003601f168201915b50505050508152602001600c8201805462001be6906200317d565b80601f016020809104026020016040519081016040528092919081815260200182805462001c14906200317d565b801562001c655780601f1062001c395761010080835404028352916020019162001c65565b820191906000526020600020905b81548152906001019060200180831162001c4757829003601f168201915b50505050508152505081526020019060010190620017fb565b60008181526007602090815260408083206005810180546001810182559085529290932090910180546001600160a01b03191633908117909155905183917f06945f0e43f3df149e954649111f2f1b9ecc4879a4c47366ecfcea7501cd6edd9162001cea9190620034fa565b60405180910390a25050565b336000908152600960205260408120549081900362001d295760405162461bcd60e51b8152600401620015289062003571565b60008960405162001d3a9062002416565b62001d46919062003583565b604051809103906000f08015801562001d63573d6000803e3d6000fd5b50905062001d75600280546001019055565b6000600a600062001d8560025490565b8152602081019190915260400160002080546001600160a01b0319166001600160a01b0384161781556002549091506001820155600381018a90556006810162001dd0898262003264565b506002810162001de18c8262003264565b506007810162001df2888262003264565b506008810162001e03878262003264565b5060058101899055600481018990556009810180546001600160a01b03191633179055600c810162001e36858262003264565b50600b810162001e47868262003264565b50600e8054600181810183556000929092528254600d9091027fbb7b4a454dc3493923482f07822329ed19e8244eff582cc204f8554c3620c3fd810180546001600160a01b0319166001600160a01b03909316929092178255918301547fbb7b4a454dc3493923482f07822329ed19e8244eff582cc204f8554c3620c3fe83015582917fbb7b4a454dc3493923482f07822329ed19e8244eff582cc204f8554c3620c3ff0162001efb600284018262003346565b506003820154816003015560048201548160040155600582015481600501556006820181600601908162001f30919062003346565b5060078181019062001f459084018262003346565b5060088181019062001f5a9084018262003346565b5060098281015490820180546001600160a01b0319166001600160a01b03909216919091179055600a808301805462001f979284019190620023d3565b50600b8181019062001fac9084018262003346565b50600c8181019062001fc19084018262003346565b5050508962001fcf60025490565b7f103cb41b8f71ac21b5792e993d472e727310a4470d9dde993d890f0634780cf1338c6040516200200292919062003596565b60405180910390a35050505050505050505050565b6060600d805480602002602001604051908101604052809291908181526020016000905b82821015620003ba57838290600052602060002090600802016040518061010001604052908160008201805462002072906200317d565b80601f0160208091040260200160405190810160405280929190818152602001828054620020a0906200317d565b8015620020f15780601f10620020c557610100808354040283529160200191620020f1565b820191906000526020600020905b815481529060010190602001808311620020d357829003601f168201915b505050505081526020016001820180546200210c906200317d565b80601f01602080910402602001604051908101604052809291908181526020018280546200213a906200317d565b80156200218b5780601f106200215f576101008083540402835291602001916200218b565b820191906000526020600020905b8154815290600101906020018083116200216d57829003601f168201915b50505050508152602001600282018054620021a6906200317d565b80601f0160208091040260200160405190810160405280929190818152602001828054620021d4906200317d565b8015620022255780601f10620021f95761010080835404028352916020019162002225565b820191906000526020600020905b8154815290600101906020018083116200220757829003601f168201915b5050505050815260200160038201805462002240906200317d565b80601f01602080910402602001604051908101604052809291908181526020018280546200226e906200317d565b8015620022bf5780601f106200229357610100808354040283529160200191620022bf565b820191906000526020600020905b815481529060010190602001808311620022a157829003601f168201915b5050505050815260200160048201548152602001600582018054806020026020016040519081016040528092919081815260200182805480156200232d57602002820191906000526020600020905b81546001600160a01b031681526001909101906020018083116200230e575b505050918352505060068201546001600160a01b031660208083019190915260079092015460409091015290825260019290920191016200203b565b828054828255906000526020600020908101928215620023c1579160200282015b82811115620023c157825182546001600160a01b0319166001600160a01b039091161782556020909201916001909101906200238a565b50620023cf92915062002424565b5090565b828054828255906000526020600020908101928215620023c15760005260206000209182015b82811115620023c1578254825591600101919060010190620023f9565b61199080620035b683390190565b5b80821115620023cf576000815560010162002425565b60006001600160a01b03821662000ae1565b62002458816200243b565b82525050565b8062002458565b805160808301906200247884826200244d565b5060208201516200248d60208501826200245e565b506040820151620024a260408501826200245e565b506060820151620024b760608501826200245e565b50505050565b6000620024cb838362002465565b505060800190565b6000620024de825190565b80845260209384019383018060005b8381101562002516578151620025048882620024bd565b975060208301925050600101620024ed565b509495945050505050565b60208082528101620025348184620024d3565b9392505050565b634e487b7160e01b600052604160045260246000fd5b601f19601f830116810181811067ffffffffffffffff821117156200257a576200257a6200253b565b6040525050565b60006200258d60405190565b90506200259b828262002551565b919050565b600067ffffffffffffffff821115620025bd57620025bd6200253b565b601f19601f83011660200192915050565b82818337506000910152565b6000620025f1620025eb84620025a0565b62002581565b9050828152602081018484840111156200260e576200260e600080fd5b6200261b848285620025ce565b509392505050565b600082601f830112620026395762002639600080fd5b81356200264b848260208601620025da565b949350505050565b600080600080600060a08688031215620026705762002670600080fd5b853567ffffffffffffffff8111156200268c576200268c600080fd5b6200269a8882890162002623565b955050602086013567ffffffffffffffff811115620026bc57620026bc600080fd5b620026ca8882890162002623565b945050604086013567ffffffffffffffff811115620026ec57620026ec600080fd5b620026fa8882890162002623565b935050606086013567ffffffffffffffff8111156200271c576200271c600080fd5b6200272a8882890162002623565b925050608086013567ffffffffffffffff8111156200274c576200274c600080fd5b6200275a8882890162002623565b9150509295509295909350565b805b81146200277557600080fd5b50565b803562000ae18162002767565b600080600080600060a08688031215620027a257620027a2600080fd5b853567ffffffffffffffff811115620027be57620027be600080fd5b620027cc8882890162002623565b955050602086013567ffffffffffffffff811115620027ee57620027ee600080fd5b620027fc8882890162002623565b945050604086013567ffffffffffffffff8111156200281e576200281e600080fd5b6200282c8882890162002623565b935050606086013567ffffffffffffffff8111156200284e576200284e600080fd5b6200285c8882890162002623565b92505060806200275a8882890162002778565b62002769816200243b565b803562000ae1816200286f565b6000602082840312156200289e576200289e600080fd5b60006200264b84846200287a565b6020810162000ae182846200245e565b60008060408385031215620028d457620028d4600080fd5b6000620028e285856200287a565b9250506020620028f58582860162002778565b9150509250929050565b80151562002458565b6020810162000ae18284620028ff565b60005b83811015620029355781810151838201526020016200291b565b50506000910152565b600062002949825190565b8084526020840193506200296281856020860162002918565b601f01601f19169290920192915050565b80516000906101208401906200298a85826200245e565b5060208301518482036020860152620029a482826200293e565b91505060408301518482036040860152620029c082826200293e565b91505060608301518482036060860152620029dc82826200293e565b91505060808301518482036080860152620029f882826200293e565b91505060a083015162002a0f60a08601826200244d565b5060c083015184820360c086015262002a2982826200293e565b91505060e083015184820360e086015262002a4582826200293e565b9150506101008301516200261b6101008601826200245e565b600062002534838362002973565b600062002a77825190565b8084526020840193508360208202850162002a928560200190565b8060005b8581101562002acb578484038952815162002ab2858262002a5e565b94506020830160209a909a019992505060010162002a96565b5091979650505050505050565b6020808252810162002534818462002a6c565b805160009061012084019062002b0285826200245e565b506020830151848203602086015262002b1c82826200293e565b915050604083015162002b3360408601826200245e565b506060830151848203606086015262002b4d82826200293e565b9150506080830151848203608086015262002b6982826200293e565b91505060a083015184820360a086015262002b8582826200293e565b91505060c083015184820360c086015262002ba182826200293e565b91505060e083015184820360e086015262002bbd82826200293e565b9150506101008301516200261b6101008601826200244d565b600062002534838362002aeb565b600062002bef825190565b8084526020840193508360208202850162002c0a8560200190565b8060005b8581101562002acb578484038952815162002c2a858262002bd6565b94506020830160209a909a019992505060010162002c0e565b6020808252810162002534818462002be4565b60006020828403121562002c6d5762002c6d600080fd5b60006200264b848462002778565b600062002c8983836200244d565b505060200190565b600062002c9c825190565b80845260209384019383018060005b838110156200251657815162002cc2888262002c7b565b97506020830192505060010162002cab565b80516000906101a084019062002ceb85826200244d565b50602083015162002d0060208601826200245e565b506040830151848203604086015262002d1a82826200293e565b915050606083015162002d3160608601826200245e565b50608083015162002d4660808601826200245e565b5060a083015162002d5b60a08601826200245e565b5060c083015184820360c086015262002d7582826200293e565b91505060e083015184820360e086015262002d9182826200293e565b91505061010083015184820361010086015262002daf82826200293e565b91505061012083015162002dc86101208601826200244d565b5061014083015184820361014086015262002de4828262002c91565b91505061016083015184820361016086015262002e0282826200293e565b91505061018083015184820361018086015262002e2082826200293e565b95945050505050565b600062002534838362002cd4565b600062002e42825190565b8084526020840193508360208202850162002e5d8560200190565b8060005b8581101562002acb578484038952815162002e7d858262002e29565b94506020830160209a909a019992505060010162002e61565b6020808252810162002534818462002e37565b600080600080600080600080610100898b03121562002ecb5762002ecb600080fd5b883567ffffffffffffffff81111562002ee75762002ee7600080fd5b62002ef58b828c0162002623565b985050602062002f088b828c0162002778565b975050604062002f1b8b828c0162002778565b965050606089013567ffffffffffffffff81111562002f3d5762002f3d600080fd5b62002f4b8b828c0162002623565b955050608089013567ffffffffffffffff81111562002f6d5762002f6d600080fd5b62002f7b8b828c0162002623565b94505060a089013567ffffffffffffffff81111562002f9d5762002f9d600080fd5b62002fab8b828c0162002623565b93505060c089013567ffffffffffffffff81111562002fcd5762002fcd600080fd5b62002fdb8b828c0162002623565b92505060e089013567ffffffffffffffff81111562002ffd5762002ffd600080fd5b6200300b8b828c0162002623565b9150509295985092959890939650565b8051610100808452600091908401906200303682826200293e565b915050602083015184820360208601526200305282826200293e565b915050604083015184820360408601526200306e82826200293e565b915050606083015184820360608601526200308a82826200293e565b9150506080830151620030a160808601826200245e565b5060a083015184820360a0860152620030bb828262002c91565b91505060c0830151620030d260c08601826200244d565b5060e08301516200261b60e08601826200245e565b60006200253483836200301b565b600062003100825190565b808452602084019350836020820285016200311b8560200190565b8060005b8581101562002acb57848403895281516200313b8582620030e7565b94506020830160209a909a01999250506001016200311f565b60208082528101620025348184620030f5565b634e487b7160e01b600052602260045260246000fd5b6002810460018216806200319257607f821691505b602082108103620031a757620031a762003167565b50919050565b600062000ae1620031bb8381565b90565b620031c983620031ad565b81546008840282811b60001990911b908116901990911617825550505050565b6000620031f8818484620031be565b505050565b818110156200321c5762003213600082620031e9565b600101620031fd565b5050565b601f821115620031f8576000818152602090206020601f85010481016020851015620032495750805b6200325d6020601f860104830182620031fd565b5050505050565b815167ffffffffffffffff8111156200328157620032816200253b565b6200328d82546200317d565b6200329a82828562003220565b6020601f831160018114620032d25760008415620032b85750858201515b600019600886021c19811660028602175b86555062003331565b600085815260208120601f198616915b82811015620033045788850151825560209485019460019092019101620032e2565b868310156200332457888501516000196008601f8a16021c1981165b8355505b6001600288020188555050505b505050505050565b805462000ae1816200317d565b81810362003352575050565b6200335d8262003339565b67ffffffffffffffff8111156200337857620033786200253b565b6200338482546200317d565b6200339182828562003220565b6000601f831160018114620033c45760008415620032b8575081860154600019600886021c1981166002860217620032c9565b600095865260208087208688529087209096601f19861691905b82811015620034005788850154825560019485019490910190602001620033de565b868310156200332457888501546000196008601f8a16021c19811662003320565b634e487b7160e01b600052601160045260246000fd5b600060001982036200344d576200344d62003421565b5060010190565b634e487b7160e01b600052603260045260246000fd5b601181526000602082017f4e6f7420656e6f75676820616d6f756e74000000000000000000000000000000815291505b5060200190565b6020808252810162000ae1816200346a565b600a81526000602082017f46756c6c206576656e7400000000000000000000000000000000000000000000815291506200349a565b6020808252810162000ae181620034b3565b6020810162000ae182846200244d565b805162000ae18162002767565b6000602082840312156200352e576200352e600080fd5b60006200264b84846200350a565b600f81526000602082017f496e76616c69642063726561746f720000000000000000000000000000000000815291506200349a565b6020808252810162000ae1816200353c565b602080825281016200253481846200293e565b60408101620035a682856200244d565b6200253460208301846200245e56fe60806040523480156200001157600080fd5b5060405162001990380380620019908339810160408190526200003491620001aa565b60408051808201909152600681526514159153919560d21b602082015281906000620000618382620002ed565b506001620000708282620002ed565b50505050620003bd565b634e487b7160e01b600052604160045260246000fd5b601f19601f83011681018181106001600160401b0382111715620000b857620000b86200007a565b6040525050565b6000620000cb60405190565b9050620000d9828262000090565b919050565b60006001600160401b03821115620000fa57620000fa6200007a565b601f19601f83011660200192915050565b60005b83811015620001285781810151838201526020016200010e565b50506000910152565b6000620001486200014284620000de565b620000bf565b905082815260208101848484011115620001655762000165600080fd5b620001728482856200010b565b509392505050565b600082601f830112620001905762000190600080fd5b8151620001a284826020860162000131565b949350505050565b600060208284031215620001c157620001c1600080fd5b81516001600160401b03811115620001dc57620001dc600080fd5b620001a2848285016200017a565b634e487b7160e01b600052602260045260246000fd5b6002810460018216806200021557607f821691505b6020821081036200022a576200022a620001ea565b50919050565b6000620002416200023e8381565b90565b92915050565b620002528362000230565b81546008840282811b60001990911b908116901990911617825550505050565b60006200028181848462000247565b505050565b81811015620002a5576200029c60008262000272565b60010162000286565b5050565b601f82111562000281576000818152602090206020601f85010481016020851015620002d25750805b620002e66020601f86010483018262000286565b5050505050565b81516001600160401b038111156200030957620003096200007a565b62000315825462000200565b62000322828285620002a9565b6020601f831160018114620003595760008415620003405750858201515b600019600886021c1981166002860217865550620003b5565b600085815260208120601f198616915b828110156200038b578885015182556020948501946001909201910162000369565b86831015620003a85784890151600019601f89166008021c191682555b6001600288020188555050505b505050505050565b6115c380620003cd6000396000f3fe608060405234801561001057600080fd5b50600436106100ea5760003560e01c80636352211e1161008c578063a22cb46511610066578063a22cb465146101d6578063b88d4fde146101e9578063c87b56dd146101fc578063e985e9c51461020f57600080fd5b80636352211e146101a857806370a08231146101bb57806395d89b41146101ce57600080fd5b806308e9bd26116100c857806308e9bd261461014d578063095ea7b31461016d57806323b872dd1461018257806342842e0e1461019557600080fd5b806301ffc9a7146100ef57806306fdde0314610118578063081812fc1461012d575b600080fd5b6101026100fd366004610cec565b61024b565b60405161010f9190610d17565b60405180910390f35b6101206102e8565b60405161010f9190610d7b565b61014061013b366004610d9d565b61037a565b60405161010f9190610dd8565b61016061015b366004610dfa565b6103a1565b60405161010f9190610e21565b61018061017b366004610e2f565b6103c8565b005b610180610190366004610e6c565b610474565b6101806101a3366004610e6c565b6104a5565b6101406101b6366004610d9d565b6104c0565b6101606101c9366004610dfa565b6104f5565b610120610539565b6101806101e4366004610ecf565b610548565b6101806101f7366004610ff5565b610557565b61012061020a366004610d9d565b61058f565b61010261021d366004611074565b6001600160a01b03918216600090815260056020908152604080832093909416825291909152205460ff1690565b60006001600160e01b031982167f80ac58cd0000000000000000000000000000000000000000000000000000000014806102ae57506001600160e01b031982167f5b5e139f00000000000000000000000000000000000000000000000000000000145b806102e257507f01ffc9a7000000000000000000000000000000000000000000000000000000006001600160e01b03198316145b92915050565b6060600080546102f7906110bd565b80601f0160208091040260200160405190810160405280929190818152602001828054610323906110bd565b80156103705780601f1061034557610100808354040283529160200191610370565b820191906000526020600020905b81548152906001019060200180831161035357829003601f168201915b5050505050905090565b600061038582610603565b506000908152600460205260409020546001600160a01b031690565b60006103b1600680546001019055565b60006103bc60065490565b90506102e2838261063a565b60006103d3826104c0565b9050806001600160a01b0316836001600160a01b03160361040f5760405162461bcd60e51b815260040161040690611146565b60405180910390fd5b336001600160a01b038216148061044957506001600160a01b038116600090815260056020908152604080832033845290915290205460ff165b6104655760405162461bcd60e51b8152600401610406906111b0565b61046f8383610742565b505050565b61047e33826107bd565b61049a5760405162461bcd60e51b81526004016104069061121a565b61046f83838361083c565b61046f83838360405180602001604052806000815250610557565b6000818152600260205260408120546001600160a01b0316806102e25760405162461bcd60e51b815260040161040690611261565b60006001600160a01b03821661051d5760405162461bcd60e51b8152600401610406906112cb565b506001600160a01b031660009081526003602052604090205490565b6060600180546102f7906110bd565b610553338383610971565b5050565b61056133836107bd565b61057d5760405162461bcd60e51b81526004016104069061121a565b61058984848484610a13565b50505050565b606061059a82610603565b60006105b160408051602081019091526000815290565b905060008151116105d157604051806020016040528060008152506105fc565b806105db84610a46565b6040516020016105ec9291906112fd565b6040516020818303038152906040525b9392505050565b6000818152600260205260409020546001600160a01b03166106375760405162461bcd60e51b815260040161040690611261565b50565b6001600160a01b0382166106605760405162461bcd60e51b815260040161040690611347565b6000818152600260205260409020546001600160a01b0316156106955760405162461bcd60e51b81526004016104069061138b565b6000818152600260205260409020546001600160a01b0316156106ca5760405162461bcd60e51b81526004016104069061138b565b6001600160a01b0382166000818152600360209081526040808320805460010190558483526002909152808220805473ffffffffffffffffffffffffffffffffffffffff19168417905551839291907fddf252ad1be2c89b69c2b068fc378daa952ba7f163c4a11628f55a4df523b3ef908290a45050565b6000818152600460205260409020805473ffffffffffffffffffffffffffffffffffffffff19166001600160a01b0384169081179091558190610784826104c0565b6001600160a01b03167f8c5be1e5ebec7d5bd14f71427d1e84f3dd0314c0f7b2291e5b200ac8c7c3b92560405160405180910390a45050565b6000806107c9836104c0565b9050806001600160a01b0316846001600160a01b0316148061081057506001600160a01b0380821660009081526005602090815260408083209388168352929052205460ff165b806108345750836001600160a01b03166108298461037a565b6001600160a01b0316145b949350505050565b826001600160a01b031661084f826104c0565b6001600160a01b0316146108755760405162461bcd60e51b8152600401610406906113f5565b6001600160a01b03821661089b5760405162461bcd60e51b81526004016104069061145f565b826001600160a01b03166108ae826104c0565b6001600160a01b0316146108d45760405162461bcd60e51b8152600401610406906113f5565b6000818152600460209081526040808320805473ffffffffffffffffffffffffffffffffffffffff199081169091556001600160a01b0387811680865260038552838620805460001901905590871680865283862080546001019055868652600290945282852080549092168417909155905184937fddf252ad1be2c89b69c2b068fc378daa952ba7f163c4a11628f55a4df523b3ef91a4505050565b816001600160a01b0316836001600160a01b0316036109a25760405162461bcd60e51b8152600401610406906114a3565b6001600160a01b0383811660008181526005602090815260408083209487168084529490915290819020805460ff1916851515179055517f17307eab39ab6107e8899845ad3d59bd9653f200f220920489ca2b5937696c3190610a06908590610d17565b60405180910390a3505050565b610a1e84848461083c565b610a2a84848484610ae7565b6105895760405162461bcd60e51b81526004016104069061150d565b60606000610a5383610be8565b600101905060008167ffffffffffffffff811115610a7357610a73610f02565b6040519080825280601f01601f191660200182016040528015610a9d576020820181803683370190505b5090508181016020015b600019017f3031323334353637383961626364656600000000000000000000000000000000600a86061a8153600a8504945084610aa7575b509392505050565b60006001600160a01b0384163b15610bdd57604051630a85bd0160e11b81526001600160a01b0385169063150b7a0290610b2b90339089908890889060040161151d565b6020604051808303816000875af1925050508015610b66575060408051601f3d908101601f19168201909252610b639181019061156c565b60015b610bc3573d808015610b94576040519150601f19603f3d011682016040523d82523d6000602084013e610b99565b606091505b508051600003610bbb5760405162461bcd60e51b81526004016104069061150d565b805181602001fd5b6001600160e01b031916630a85bd0160e11b149050610834565b506001949350505050565b6000807a184f03e93ff9f4daa797ed6e38ed64bf6a1f0100000000000000008310610c31577a184f03e93ff9f4daa797ed6e38ed64bf6a1f010000000000000000830492506040015b6d04ee2d6d415b85acef81000000008310610c5d576d04ee2d6d415b85acef8100000000830492506020015b662386f26fc100008310610c7b57662386f26fc10000830492506010015b6305f5e1008310610c93576305f5e100830492506008015b6127108310610ca757612710830492506004015b60648310610cb9576064830492506002015b600a83106102e25760010192915050565b6001600160e01b031981165b811461063757600080fd5b80356102e281610cca565b600060208284031215610d0157610d01600080fd5b60006108348484610ce1565b8015155b82525050565b602081016102e28284610d0d565b60005b83811015610d40578181015183820152602001610d28565b50506000910152565b6000610d53825190565b808452602084019350610d6a818560208601610d25565b601f01601f19169290920192915050565b602080825281016105fc8184610d49565b80610cd6565b80356102e281610d8c565b600060208284031215610db257610db2600080fd5b60006108348484610d92565b60006001600160a01b0382166102e2565b610d1181610dbe565b602081016102e28284610dcf565b610cd681610dbe565b80356102e281610de6565b600060208284031215610e0f57610e0f600080fd5b60006108348484610def565b80610d11565b602081016102e28284610e1b565b60008060408385031215610e4557610e45600080fd5b6000610e518585610def565b9250506020610e6285828601610d92565b9150509250929050565b600080600060608486031215610e8457610e84600080fd5b6000610e908686610def565b9350506020610ea186828701610def565b9250506040610eb286828701610d92565b9150509250925092565b801515610cd6565b80356102e281610ebc565b60008060408385031215610ee557610ee5600080fd5b6000610ef18585610def565b9250506020610e6285828601610ec4565b634e487b7160e01b600052604160045260246000fd5b601f19601f830116810181811067ffffffffffffffff82111715610f3e57610f3e610f02565b6040525050565b6000610f5060405190565b9050610f5c8282610f18565b919050565b600067ffffffffffffffff821115610f7b57610f7b610f02565b601f19601f83011660200192915050565b82818337506000910152565b6000610fab610fa684610f61565b610f45565b905082815260208101848484011115610fc657610fc6600080fd5b610adf848285610f8c565b600082601f830112610fe557610fe5600080fd5b8135610834848260208601610f98565b6000806000806080858703121561100e5761100e600080fd5b600061101a8787610def565b945050602061102b87828801610def565b935050604061103c87828801610d92565b925050606085013567ffffffffffffffff81111561105c5761105c600080fd5b61106887828801610fd1565b91505092959194509250565b6000806040838503121561108a5761108a600080fd5b60006110968585610def565b9250506020610e6285828601610def565b634e487b7160e01b600052602260045260246000fd5b6002810460018216806110d157607f821691505b6020821081036110e3576110e36110a7565b50919050565b602181526000602082017f4552433732313a20617070726f76616c20746f2063757272656e74206f776e6581527f7200000000000000000000000000000000000000000000000000000000000000602082015291505b5060400190565b602080825281016102e2816110e9565b603d81526000602082017f4552433732313a20617070726f76652063616c6c6572206973206e6f7420746f81527f6b656e206f776e6572206f7220617070726f76656420666f7220616c6c0000006020820152915061113f565b602080825281016102e281611156565b602d81526000602082017f4552433732313a2063616c6c6572206973206e6f7420746f6b656e206f776e6581527f72206f7220617070726f766564000000000000000000000000000000000000006020820152915061113f565b602080825281016102e2816111c0565b601881526000602082017f4552433732313a20696e76616c696420746f6b656e2049440000000000000000815291505b5060200190565b602080825281016102e28161122a565b602981526000602082017f4552433732313a2061646472657373207a65726f206973206e6f74206120766181527f6c6964206f776e657200000000000000000000000000000000000000000000006020820152915061113f565b602080825281016102e281611271565b60006112e5825190565b6112f3818560208601610d25565b9290920192915050565b600061130982856112db565b915061083482846112db565b60208082527f4552433732313a206d696e7420746f20746865207a65726f20616464726573739101908152600061125a565b602080825281016102e281611315565b601c81526000602082017f4552433732313a20746f6b656e20616c7265616479206d696e746564000000008152915061125a565b602080825281016102e281611357565b602581526000602082017f4552433732313a207472616e736665722066726f6d20696e636f72726563742081527f6f776e65720000000000000000000000000000000000000000000000000000006020820152915061113f565b602080825281016102e28161139b565b602481526000602082017f4552433732313a207472616e7366657220746f20746865207a65726f2061646481527f72657373000000000000000000000000000000000000000000000000000000006020820152915061113f565b602080825281016102e281611405565b601981526000602082017f4552433732313a20617070726f766520746f2063616c6c6572000000000000008152915061125a565b602080825281016102e28161146f565b603281526000602082017f4552433732313a207472616e7366657220746f206e6f6e20455243373231526581527f63656976657220696d706c656d656e74657200000000000000000000000000006020820152915061113f565b602080825281016102e2816114b3565b6080810161152b8287610dcf565b6115386020830186610dcf565b6115456040830185610e1b565b81810360608301526115578184610d49565b9695505050505050565b80516102e281610cca565b60006020828403121561158157611581600080fd5b6000610834848461156156fea26469706673582212201e2c88d70afceb950bfbedaafc9c0ecfecd2cb3ce5db3d36a68f71c9c4dc81bd64736f6c63430008110033a2646970667358221220c52c368000d405ed41c3ccd68b71cf205b71a66db69bb4fdd871d99f0b06c54864736f6c63430008110033",
  "linkReferences": {},
  "deployedLinkReferences": {}
}