{
  "_format": "hh-sol-artifact-1",
  "contractName": "Polyverse",
  "sourceName": "contracts/basic-solidity-examples/Polyverse.sol",
  "abi": [
    {
      "anonymous": false,
      "inputs": [
        {
          "indexed": true,
          "internalType": "uint256",
          "name": "id",
          "type": "uint256"
        },
        {
          "indexed": false,
          "internalType": "uint256",
          "name": "subscriptionFee",
          "type": "uint256"
        }
      ],
      "name": "CreatorAdded",
      "type": "event"
    },
    {
      "anonymous": false,
      "inputs": [
        {
          "indexed": true,
          "internalType": "uint256",
          "name": "eventId",
          "type": "uint256"
        },
        {
          "indexed": false,
          "internalType": "address",
          "name": "owner",
          "type": "address"
        },
        {
          "indexed": false,
          "internalType": "uint256",
          "name": "maxParticipants",
          "type": "uint256"
        },
        {
          "indexed": true,
          "internalType": "uint256",
          "name": "ticketPrice",
          "type": "uint256"
        }
      ],
      "name": "EventCreated",
      "type": "event"
    },
    {
      "anonymous": false,
      "inputs": [
        {
          "indexed": true,
          "internalType": "uint256",
          "name": "id",
          "type": "uint256"
        },
        {
          "indexed": false,
          "internalType": "address",
          "name": "subscriber",
          "type": "address"
        }
      ],
      "name": "SubscribedToCreator",
      "type": "event"
    },
    {
      "anonymous": false,
      "inputs": [
        {
          "indexed": true,
          "internalType": "uint256",
          "name": "eventId",
          "type": "uint256"
        },
        {
          "indexed": false,
          "internalType": "address",
          "name": "buyer",
          "type": "address"
        },
        {
          "indexed": true,
          "internalType": "uint256",
          "name": "ticketNFTId",
          "type": "uint256"
        }
      ],
      "name": "TicketPurchased",
      "type": "event"
    },
    {
      "inputs": [
        {
          "internalType": "address",
          "name": "",
          "type": "address"
        }
      ],
      "name": "_addressToCreatorId",
      "outputs": [
        {
          "internalType": "uint256",
          "name": "",
          "type": "uint256"
        }
      ],
      "stateMutability": "view",
      "type": "function"
    },
    {
      "inputs": [
        {
          "internalType": "address",
          "name": "",
          "type": "address"
        }
      ],
      "name": "_userToTicketId",
      "outputs": [
        {
          "internalType": "uint256",
          "name": "",
          "type": "uint256"
        }
      ],
      "stateMutability": "view",
      "type": "function"
    },
    {
      "inputs": [
        {
          "internalType": "string",
          "name": "_name",
          "type": "string"
        },
        {
          "internalType": "string",
          "name": "_imagepath",
          "type": "string"
        },
        {
          "internalType": "string",
          "name": "_category",
          "type": "string"
        },
        {
          "internalType": "string",
          "name": "_bio",
          "type": "string"
        },
        {
          "internalType": "uint256",
          "name": "_subscriptionFee",
          "type": "uint256"
        }
      ],
      "name": "addCreator",
      "outputs": [],
      "stateMutability": "nonpayable",
      "type": "function"
    },
    {
      "inputs": [],
      "name": "getAllCreators",
      "outputs": [
        {
          "components": [
            {
              "internalType": "string",
              "name": "name",
              "type": "string"
            },
            {
              "internalType": "string",
              "name": "imageIpfs",
              "type": "string"
            },
            {
              "internalType": "string",
              "name": "category",
              "type": "string"
            },
            {
              "internalType": "string",
              "name": "bio",
              "type": "string"
            },
            {
              "internalType": "uint256",
              "name": "subscriptionFee",
              "type": "uint256"
            },
            {
              "internalType": "address[]",
              "name": "subscribers",
              "type": "address[]"
            },
            {
              "internalType": "address",
              "name": "owner",
              "type": "address"
            },
            {
              "internalType": "uint256",
              "name": "balance",
              "type": "uint256"
            }
          ],
          "internalType": "struct Polyverse.Creator[]",
          "name": "",
          "type": "tuple[]"
        }
      ],
      "stateMutability": "view",
      "type": "function"
    },
    {
      "inputs": [],
      "name": "getAllEvents",
      "outputs": [
        {
          "components": [
            {
              "internalType": "address",
              "name": "eventNFT",
              "type": "address"
            },
            {
              "internalType": "uint256",
              "name": "id",
              "type": "uint256"
            },
            {
              "internalType": "string",
              "name": "name",
              "type": "string"
            },
            {
              "internalType": "uint256",
              "name": "cost",
              "type": "uint256"
            },
            {
              "internalType": "uint256",
              "name": "tickets",
              "type": "uint256"
            },
            {
              "internalType": "uint256",
              "name": "maxTickets",
              "type": "uint256"
            },
            {
              "internalType": "string",
              "name": "date",
              "type": "string"
            },
            {
              "internalType": "string",
              "name": "time",
              "type": "string"
            },
            {
              "internalType": "string",
              "name": "location",
              "type": "string"
            },
            {
              "internalType": "address",
              "name": "owner",
              "type": "address"
            },
            {
              "internalType": "address[]",
              "name": "participants",
              "type": "address[]"
            }
          ],
          "internalType": "struct Polyverse.Event[]",
          "name": "",
          "type": "tuple[]"
        }
      ],
      "stateMutability": "view",
      "type": "function"
    },
    {
      "inputs": [],
      "name": "getAllTickets",
      "outputs": [
        {
          "components": [
            {
              "internalType": "address",
              "name": "owner",
              "type": "address"
            },
            {
              "internalType": "uint256",
              "name": "eventId",
              "type": "uint256"
            },
            {
              "internalType": "uint256",
              "name": "seatNumber",
              "type": "uint256"
            },
            {
              "internalType": "uint256",
              "name": "ticketNFTId",
              "type": "uint256"
            }
          ],
          "internalType": "struct Polyverse.Ticket[]",
          "name": "",
          "type": "tuple[]"
        }
      ],
      "stateMutability": "view",
      "type": "function"
    },
    {
      "inputs": [
        {
          "internalType": "address",
          "name": "subscriber",
          "type": "address"
        },
        {
          "internalType": "uint256",
          "name": "creatorId",
          "type": "uint256"
        }
      ],
      "name": "isSubscribedToCreator",
      "outputs": [
        {
          "internalType": "bool",
          "name": "",
          "type": "bool"
        }
      ],
      "stateMutability": "view",
      "type": "function"
    },
    {
      "inputs": [
        {
          "internalType": "string",
          "name": "_name",
          "type": "string"
        },
        {
          "internalType": "uint256",
          "name": "_cost",
          "type": "uint256"
        },
        {
          "internalType": "uint256",
          "name": "_maxTickets",
          "type": "uint256"
        },
        {
          "internalType": "string",
          "name": "_date",
          "type": "string"
        },
        {
          "internalType": "string",
          "name": "_time",
          "type": "string"
        },
        {
          "internalType": "string",
          "name": "_location",
          "type": "string"
        }
      ],
      "name": "listEvent",
      "outputs": [],
      "stateMutability": "nonpayable",
      "type": "function"
    },
    {
      "inputs": [
        {
          "internalType": "uint256",
          "name": "eventId",
          "type": "uint256"
        }
      ],
      "name": "purchaseTicket",
      "outputs": [],
      "stateMutability": "payable",
      "type": "function"
    },
    {
      "inputs": [
        {
          "internalType": "uint256",
          "name": "creatorId",
          "type": "uint256"
        }
      ],
      "name": "subscribeToCreator",
      "outputs": [],
      "stateMutability": "nonpayable",
      "type": "function"
    }
  ],
  "bytecode": "0x608060405234801561001057600080fd5b50613ccc806100206000396000f3fe608060405260043610620000bf5760003560e01c8063b948348c1162000071578063c27a500d1162000054578063c27a500d14620001fc578063dd5f1fb51462000223578063f97fac4d146200024857600080fd5b8063b948348c14620001b4578063c193736b14620001cb57600080fd5b8063135b40e511620000a6578063135b40e5146200011b57806321ebf5d5146200015b578063abcda41d146200018f57600080fd5b806303e96fe314620000c4578063097f46d114620000f4575b600080fd5b348015620000d157600080fd5b50620000dc6200026f565b604051620000eb9190620016f2565b60405180910390f35b3480156200010157600080fd5b50620001196200011336600462001842565b620002fb565b005b3480156200012857600080fd5b506200014c6200013a36600462001951565b60066020526000908152604090205481565b604051620000eb919062001976565b3480156200016857600080fd5b50620001806200017a36600462001986565b620004c3565b604051620000eb9190620019d2565b3480156200019c57600080fd5b5062000119620001ae366004620019e2565b6200084e565b62000119620001c536600462001aed565b62000b24565b348015620001d857600080fd5b506200014c620001ea36600462001951565b60046020526000908152604090205481565b3480156200020957600080fd5b506200021462000dfd565b604051620000eb919062001d59565b3480156200023057600080fd5b50620001196200024236600462001aed565b62001170565b3480156200025557600080fd5b5062000260620011e8565b604051620000eb919062001ea5565b6060600a805480602002602001604051908101604052809291908181526020016000905b82821015620002f2576000848152602090819020604080516080810182526004860290920180546001600160a01b0316835260018082015484860152600282015492840192909252600301546060830152908352909201910162000293565b50505050905090565b6200030a600080546001019055565b60008054808252600360205260409091206060816200032a898262001fb5565b50600182016200033b888262001fb5565b50600282016200034c878262001fb5565b50600382016200035d868262001fb5565b506004820184905580516200037c90600584019060208401906200153a565b506000600783018190556006830180546001600160a01b03191633908117909155815260046020526040812084905560088054600181018255918190528391027ff3f7a9fe364faab93b216da50a3214154f22a0a2b415b23a84c8169e8b636ee30180620003eb838262002097565b50600181810190620004009084018262002097565b50600281810190620004159084018262002097565b506003818101906200042a9084018262002097565b506004820154816004015560058201816005019080546200044d929190620015a4565b5060068281015490820180546001600160a01b0319166001600160a01b0390921691909117905560079182015491015560405183907fcc7ae948ef8cab396e70738555a2a119dd011ace6409fbcdbb4327f87a3d2ef390620004b190879062001976565b60405180910390a25050505050505050565b6000818152600360205260408082208151610100810190925280548392919082908290620004f19062001ece565b80601f01602080910402602001604051908101604052809291908181526020018280546200051f9062001ece565b8015620005705780601f10620005445761010080835404028352916020019162000570565b820191906000526020600020905b8154815290600101906020018083116200055257829003601f168201915b505050505081526020016001820180546200058b9062001ece565b80601f0160208091040260200160405190810160405280929190818152602001828054620005b99062001ece565b80156200060a5780601f10620005de576101008083540402835291602001916200060a565b820191906000526020600020905b815481529060010190602001808311620005ec57829003601f168201915b50505050508152602001600282018054620006259062001ece565b80601f0160208091040260200160405190810160405280929190818152602001828054620006539062001ece565b8015620006a45780601f106200067857610100808354040283529160200191620006a4565b820191906000526020600020905b8154815290600101906020018083116200068657829003601f168201915b50505050508152602001600382018054620006bf9062001ece565b80601f0160208091040260200160405190810160405280929190818152602001828054620006ed9062001ece565b80156200073e5780601f1062000712576101008083540402835291602001916200073e565b820191906000526020600020905b8154815290600101906020018083116200072057829003601f168201915b505050505081526020016004820154815260200160058201805480602002602001604051908101604052809291908181526020018280548015620007ac57602002820191906000526020600020905b81546001600160a01b031681526001909101906020018083116200078d575b505050918352505060068201546001600160a01b03166020820152600790910154604090910152905060005b8160a00151518110156200084157846001600160a01b03168260a00151828151811062000809576200080962002172565b60200260200101516001600160a01b0316036200082c5760019250505062000848565b8062000838816200219e565b915050620007d8565b5060009150505b92915050565b33600090815260046020526040812054908190036200088a5760405162461bcd60e51b81526004016200088190620021f2565b60405180910390fd5b6000876040516200089b90620015e7565b620008a7919062002204565b604051809103906000f080158015620008c4573d6000803e3d6000fd5b509050620008d6600280546001019055565b600060056000620008e660025490565b8152602081019190915260400160002080546001600160a01b0319166001600160a01b0384161781556002549091506001820155600381018890556006810162000931878262001fb5565b5060028101620009428a8262001fb5565b506007810162000953868262001fb5565b506008810162000964858262001fb5565b50600581018790556004810187905560098082018054336001600160a01b03199182161790915581546001818101845560009390935283547f6e1540171b6c0c960b71a7020d9f60077f6af931a8bbf590da0223dacf75c7af600b90920291820180546001600160a01b0390921691909316178255918301547f6e1540171b6c0c960b71a7020d9f60077f6af931a8bbf590da0223dacf75c7b083015582917f6e1540171b6c0c960b71a7020d9f60077f6af931a8bbf590da0223dacf75c7b10162000a34600284018262002097565b506003820154816003015560048201548160040155600582015481600501556006820181600601908162000a69919062002097565b5060078181019062000a7e9084018262002097565b5060088181019062000a939084018262002097565b5060098281015490820180546001600160a01b0319166001600160a01b03909216919091179055600a808301805462000ad09284019190620015a4565b5050508762000ade60025490565b7f103cb41b8f71ac21b5792e993d472e727310a4470d9dde993d890f0634780cf1338a60405162000b1192919062002217565b60405180910390a3505050505050505050565b6000818152600560205260409020600381015434101562000b595760405162461bcd60e51b815260040162000881906200226b565b6005810154600a8201541062000b835760405162461bcd60e51b81526004016200088190620022b2565b600981015460038201546040516001600160a01b039092169181156108fc0291906000818181858888f1935050505015801562000bc4573d6000803e3d6000fd5b5080546001600160a01b031662000bdf600180546001019055565b6040517f08e9bd260000000000000000000000000000000000000000000000000000000081526000906001600160a01b038316906308e9bd269062000c29903390600401620022c4565b6020604051808303816000875af115801562000c49573d6000803e3d6000fd5b505050506040513d601f19601f8201168201806040525081019062000c6f9190620022e1565b905062000c7b60015490565b3360009081526006602052604081209190915560078162000c9b60015490565b8152602080820192909252604090810160009081208054336001600160a01b03199182168117835560018084018c8155600a8c8101805460028801908155600388018d815582548087018455928a529a8920909101805487168617905581549384018255965284547fc65a7bb8d6351c1cf70c95a316cc6a92839c986682d98bc35f958f4883f9d2a8600490930292830180546001600160a01b03909216919095161790935591547fc65a7bb8d6351c1cf70c95a316cc6a92839c986682d98bc35f958f4883f9d2a983015592547fc65a7bb8d6351c1cf70c95a316cc6a92839c986682d98bc35f958f4883f9d2aa82015593547fc65a7bb8d6351c1cf70c95a316cc6a92839c986682d98bc35f958f4883f9d2ab909401939093559051919250839187917fdbaaf4c87ce30816c961a81d110622a3227ede77953d4383d514ff88ab2e0fd39162000dee9190620022c4565b60405180910390a35050505050565b60606009805480602002602001604051908101604052809291908181526020016000905b82821015620002f25760008481526020908190206040805161016081018252600b860290920180546001600160a01b031683526001810154938301939093526002830180549293929184019162000e789062001ece565b80601f016020809104026020016040519081016040528092919081815260200182805462000ea69062001ece565b801562000ef75780601f1062000ecb5761010080835404028352916020019162000ef7565b820191906000526020600020905b81548152906001019060200180831162000ed957829003601f168201915b5050505050815260200160038201548152602001600482015481526020016005820154815260200160068201805462000f309062001ece565b80601f016020809104026020016040519081016040528092919081815260200182805462000f5e9062001ece565b801562000faf5780601f1062000f835761010080835404028352916020019162000faf565b820191906000526020600020905b81548152906001019060200180831162000f9157829003601f168201915b5050505050815260200160078201805462000fca9062001ece565b80601f016020809104026020016040519081016040528092919081815260200182805462000ff89062001ece565b8015620010495780601f106200101d5761010080835404028352916020019162001049565b820191906000526020600020905b8154815290600101906020018083116200102b57829003601f168201915b50505050508152602001600882018054620010649062001ece565b80601f0160208091040260200160405190810160405280929190818152602001828054620010929062001ece565b8015620010e35780601f10620010b757610100808354040283529160200191620010e3565b820191906000526020600020905b815481529060010190602001808311620010c557829003601f168201915b505050918352505060098201546001600160a01b0316602080830191909152600a8301805460408051828502810185018252828152940193928301828280156200115757602002820191906000526020600020905b81546001600160a01b0316815260019091019060200180831162001138575b5050505050815250508152602001906001019062000e21565b60008181526003602090815260408083206005810180546001810182559085529290932090910180546001600160a01b03191633908117909155905183917f06945f0e43f3df149e954649111f2f1b9ecc4879a4c47366ecfcea7501cd6edd91620011dc9190620022c4565b60405180910390a25050565b60606008805480602002602001604051908101604052809291908181526020016000905b82821015620002f2578382906000526020600020906008020160405180610100016040529081600082018054620012439062001ece565b80601f0160208091040260200160405190810160405280929190818152602001828054620012719062001ece565b8015620012c25780601f106200129657610100808354040283529160200191620012c2565b820191906000526020600020905b815481529060010190602001808311620012a457829003601f168201915b50505050508152602001600182018054620012dd9062001ece565b80601f01602080910402602001604051908101604052809291908181526020018280546200130b9062001ece565b80156200135c5780601f1062001330576101008083540402835291602001916200135c565b820191906000526020600020905b8154815290600101906020018083116200133e57829003601f168201915b50505050508152602001600282018054620013779062001ece565b80601f0160208091040260200160405190810160405280929190818152602001828054620013a59062001ece565b8015620013f65780601f10620013ca57610100808354040283529160200191620013f6565b820191906000526020600020905b815481529060010190602001808311620013d857829003601f168201915b50505050508152602001600382018054620014119062001ece565b80601f01602080910402602001604051908101604052809291908181526020018280546200143f9062001ece565b8015620014905780601f10620014645761010080835404028352916020019162001490565b820191906000526020600020905b8154815290600101906020018083116200147257829003601f168201915b505050505081526020016004820154815260200160058201805480602002602001604051908101604052809291908181526020018280548015620014fe57602002820191906000526020600020905b81546001600160a01b03168152600190910190602001808311620014df575b505050918352505060068201546001600160a01b031660208083019190915260079092015460409091015290825260019290920191016200120c565b82805482825590600052602060002090810192821562001592579160200282015b828111156200159257825182546001600160a01b0319166001600160a01b039091161782556020909201916001909101906200155b565b50620015a0929150620015f5565b5090565b828054828255906000526020600020908101928215620015925760005260206000209182015b8281111562001592578254825591600101919060010190620015ca565b611990806200230783390190565b5b80821115620015a05760008155600101620015f6565b60006001600160a01b03821662000848565b62001629816200160c565b82525050565b8062001629565b805160808301906200164984826200161e565b5060208201516200165e60208501826200162f565b5060408201516200167360408501826200162f565b5060608201516200168860608501826200162f565b50505050565b60006200169c838362001636565b505060800190565b6000620016af825190565b80845260209384019383018060005b83811015620016e7578151620016d588826200168e565b975060208301925050600101620016be565b509495945050505050565b60208082528101620017058184620016a4565b9392505050565b634e487b7160e01b600052604160045260246000fd5b601f19601f830116810181811067ffffffffffffffff821117156200174b576200174b6200170c565b6040525050565b60006200175e60405190565b90506200176c828262001722565b919050565b600067ffffffffffffffff8211156200178e576200178e6200170c565b601f19601f83011660200192915050565b82818337506000910152565b6000620017c2620017bc8462001771565b62001752565b905082815260208101848484011115620017df57620017df600080fd5b620017ec8482856200179f565b509392505050565b600082601f8301126200180a576200180a600080fd5b81356200181c848260208601620017ab565b949350505050565b805b81146200183257600080fd5b50565b8035620008488162001824565b600080600080600060a086880312156200185f576200185f600080fd5b853567ffffffffffffffff8111156200187b576200187b600080fd5b6200188988828901620017f4565b955050602086013567ffffffffffffffff811115620018ab57620018ab600080fd5b620018b988828901620017f4565b945050604086013567ffffffffffffffff811115620018db57620018db600080fd5b620018e988828901620017f4565b935050606086013567ffffffffffffffff8111156200190b576200190b600080fd5b6200191988828901620017f4565b92505060806200192c8882890162001835565b9150509295509295909350565b62001826816200160c565b8035620008488162001939565b600060208284031215620019685762001968600080fd5b60006200181c848462001944565b602081016200084882846200162f565b600080604083850312156200199e576200199e600080fd5b6000620019ac858562001944565b9250506020620019bf8582860162001835565b9150509250929050565b80151562001629565b60208101620008488284620019c9565b60008060008060008060c0878903121562001a005762001a00600080fd5b863567ffffffffffffffff81111562001a1c5762001a1c600080fd5b62001a2a89828a01620017f4565b965050602062001a3d89828a0162001835565b955050604062001a5089828a0162001835565b945050606087013567ffffffffffffffff81111562001a725762001a72600080fd5b62001a8089828a01620017f4565b935050608087013567ffffffffffffffff81111562001aa25762001aa2600080fd5b62001ab089828a01620017f4565b92505060a087013567ffffffffffffffff81111562001ad25762001ad2600080fd5b62001ae089828a01620017f4565b9150509295509295509295565b60006020828403121562001b045762001b04600080fd5b60006200181c848462001835565b60005b8381101562001b2f57818101518382015260200162001b15565b50506000910152565b600062001b43825190565b80845260208401935062001b5c81856020860162001b12565b601f01601f19169290920192915050565b600062001b7b83836200161e565b505060200190565b600062001b8e825190565b80845260209384019383018060005b83811015620016e757815162001bb4888262001b6d565b97506020830192505060010162001b9d565b805160009061016084019062001bdd85826200161e565b50602083015162001bf260208601826200162f565b506040830151848203604086015262001c0c828262001b38565b915050606083015162001c2360608601826200162f565b50608083015162001c3860808601826200162f565b5060a083015162001c4d60a08601826200162f565b5060c083015184820360c086015262001c67828262001b38565b91505060e083015184820360e086015262001c83828262001b38565b91505061010083015184820361010086015262001ca1828262001b38565b91505061012083015162001cba6101208601826200161e565b5061014083015184820361014086015262001cd6828262001b83565b95945050505050565b600062001705838362001bc6565b600062001cf8825190565b8084526020840193508360208202850162001d138560200190565b8060005b8581101562001d4c578484038952815162001d33858262001cdf565b94506020830160209a909a019992505060010162001d17565b5091979650505050505050565b6020808252810162001705818462001ced565b80516101008084526000919084019062001d87828262001b38565b9150506020830151848203602086015262001da3828262001b38565b9150506040830151848203604086015262001dbf828262001b38565b9150506060830151848203606086015262001ddb828262001b38565b915050608083015162001df260808601826200162f565b5060a083015184820360a086015262001e0c828262001b83565b91505060c083015162001e2360c08601826200161e565b5060e0830151620017ec60e08601826200162f565b600062001705838362001d6c565b600062001e51825190565b8084526020840193508360208202850162001e6c8560200190565b8060005b8581101562001d4c578484038952815162001e8c858262001e38565b94506020830160209a909a019992505060010162001e70565b6020808252810162001705818462001e46565b634e487b7160e01b600052602260045260246000fd5b60028104600182168062001ee357607f821691505b60208210810362001ef85762001ef862001eb8565b50919050565b60006200084862001f0c8381565b90565b62001f1a8362001efe565b81546008840282811b60001990911b908116901990911617825550505050565b600062001f4981848462001f0f565b505050565b8181101562001f6d5762001f6460008262001f3a565b60010162001f4e565b5050565b601f82111562001f49576000818152602090206020601f8501048101602085101562001f9a5750805b62001fae6020601f86010483018262001f4e565b5050505050565b815167ffffffffffffffff81111562001fd25762001fd26200170c565b62001fde825462001ece565b62001feb82828562001f71565b6020601f831160018114620020235760008415620020095750858201515b600019600886021c19811660028602175b86555062002082565b600085815260208120601f198616915b8281101562002055578885015182556020948501946001909201910162002033565b868310156200207557888501516000196008601f8a16021c1981165b8355505b6001600288020188555050505b505050505050565b8054620008488162001ece565b818103620020a3575050565b620020ae826200208a565b67ffffffffffffffff811115620020c957620020c96200170c565b620020d5825462001ece565b620020e282828562001f71565b6000601f83116001811462002115576000841562002009575081860154600019600886021c19811660028602176200201a565b600095865260208087208688529087209096601f19861691905b828110156200215157888501548255600194850194909101906020016200212f565b868310156200207557888501546000196008601f8a16021c19811662002071565b634e487b7160e01b600052603260045260246000fd5b634e487b7160e01b600052601160045260246000fd5b60006000198203620021b457620021b462002188565b5060010190565b600f81526000602082017f496e76616c69642063726561746f720000000000000000000000000000000000815291505b5060200190565b602080825281016200084881620021bb565b6020808252810162001705818462001b38565b604081016200222782856200161e565b6200170560208301846200162f565b601181526000602082017f4e6f7420656e6f75676820616d6f756e7400000000000000000000000000000081529150620021eb565b60208082528101620008488162002236565b600a81526000602082017f46756c6c206576656e740000000000000000000000000000000000000000000081529150620021eb565b6020808252810162000848816200227d565b602081016200084882846200161e565b8051620008488162001824565b600060208284031215620022f857620022f8600080fd5b60006200181c8484620022d456fe60806040523480156200001157600080fd5b5060405162001990380380620019908339810160408190526200003491620001aa565b60408051808201909152600681526514159153919560d21b602082015281906000620000618382620002ed565b506001620000708282620002ed565b50505050620003bd565b634e487b7160e01b600052604160045260246000fd5b601f19601f83011681018181106001600160401b0382111715620000b857620000b86200007a565b6040525050565b6000620000cb60405190565b9050620000d9828262000090565b919050565b60006001600160401b03821115620000fa57620000fa6200007a565b601f19601f83011660200192915050565b60005b83811015620001285781810151838201526020016200010e565b50506000910152565b6000620001486200014284620000de565b620000bf565b905082815260208101848484011115620001655762000165600080fd5b620001728482856200010b565b509392505050565b600082601f830112620001905762000190600080fd5b8151620001a284826020860162000131565b949350505050565b600060208284031215620001c157620001c1600080fd5b81516001600160401b03811115620001dc57620001dc600080fd5b620001a2848285016200017a565b634e487b7160e01b600052602260045260246000fd5b6002810460018216806200021557607f821691505b6020821081036200022a576200022a620001ea565b50919050565b6000620002416200023e8381565b90565b92915050565b620002528362000230565b81546008840282811b60001990911b908116901990911617825550505050565b60006200028181848462000247565b505050565b81811015620002a5576200029c60008262000272565b60010162000286565b5050565b601f82111562000281576000818152602090206020601f85010481016020851015620002d25750805b620002e66020601f86010483018262000286565b5050505050565b81516001600160401b038111156200030957620003096200007a565b62000315825462000200565b62000322828285620002a9565b6020601f831160018114620003595760008415620003405750858201515b600019600886021c1981166002860217865550620003b5565b600085815260208120601f198616915b828110156200038b578885015182556020948501946001909201910162000369565b86831015620003a85784890151600019601f89166008021c191682555b6001600288020188555050505b505050505050565b6115c380620003cd6000396000f3fe608060405234801561001057600080fd5b50600436106100ea5760003560e01c80636352211e1161008c578063a22cb46511610066578063a22cb465146101d6578063b88d4fde146101e9578063c87b56dd146101fc578063e985e9c51461020f57600080fd5b80636352211e146101a857806370a08231146101bb57806395d89b41146101ce57600080fd5b806308e9bd26116100c857806308e9bd261461014d578063095ea7b31461016d57806323b872dd1461018257806342842e0e1461019557600080fd5b806301ffc9a7146100ef57806306fdde0314610118578063081812fc1461012d575b600080fd5b6101026100fd366004610cec565b61024b565b60405161010f9190610d17565b60405180910390f35b6101206102e8565b60405161010f9190610d7b565b61014061013b366004610d9d565b61037a565b60405161010f9190610dd8565b61016061015b366004610dfa565b6103a1565b60405161010f9190610e21565b61018061017b366004610e2f565b6103c8565b005b610180610190366004610e6c565b610474565b6101806101a3366004610e6c565b6104a5565b6101406101b6366004610d9d565b6104c0565b6101606101c9366004610dfa565b6104f5565b610120610539565b6101806101e4366004610ecf565b610548565b6101806101f7366004610ff5565b610557565b61012061020a366004610d9d565b61058f565b61010261021d366004611074565b6001600160a01b03918216600090815260056020908152604080832093909416825291909152205460ff1690565b60006001600160e01b031982167f80ac58cd0000000000000000000000000000000000000000000000000000000014806102ae57506001600160e01b031982167f5b5e139f00000000000000000000000000000000000000000000000000000000145b806102e257507f01ffc9a7000000000000000000000000000000000000000000000000000000006001600160e01b03198316145b92915050565b6060600080546102f7906110bd565b80601f0160208091040260200160405190810160405280929190818152602001828054610323906110bd565b80156103705780601f1061034557610100808354040283529160200191610370565b820191906000526020600020905b81548152906001019060200180831161035357829003601f168201915b5050505050905090565b600061038582610603565b506000908152600460205260409020546001600160a01b031690565b60006103b1600680546001019055565b60006103bc60065490565b90506102e2838261063a565b60006103d3826104c0565b9050806001600160a01b0316836001600160a01b03160361040f5760405162461bcd60e51b815260040161040690611146565b60405180910390fd5b336001600160a01b038216148061044957506001600160a01b038116600090815260056020908152604080832033845290915290205460ff165b6104655760405162461bcd60e51b8152600401610406906111b0565b61046f8383610742565b505050565b61047e33826107bd565b61049a5760405162461bcd60e51b81526004016104069061121a565b61046f83838361083c565b61046f83838360405180602001604052806000815250610557565b6000818152600260205260408120546001600160a01b0316806102e25760405162461bcd60e51b815260040161040690611261565b60006001600160a01b03821661051d5760405162461bcd60e51b8152600401610406906112cb565b506001600160a01b031660009081526003602052604090205490565b6060600180546102f7906110bd565b610553338383610971565b5050565b61056133836107bd565b61057d5760405162461bcd60e51b81526004016104069061121a565b61058984848484610a13565b50505050565b606061059a82610603565b60006105b160408051602081019091526000815290565b905060008151116105d157604051806020016040528060008152506105fc565b806105db84610a46565b6040516020016105ec9291906112fd565b6040516020818303038152906040525b9392505050565b6000818152600260205260409020546001600160a01b03166106375760405162461bcd60e51b815260040161040690611261565b50565b6001600160a01b0382166106605760405162461bcd60e51b815260040161040690611347565b6000818152600260205260409020546001600160a01b0316156106955760405162461bcd60e51b81526004016104069061138b565b6000818152600260205260409020546001600160a01b0316156106ca5760405162461bcd60e51b81526004016104069061138b565b6001600160a01b0382166000818152600360209081526040808320805460010190558483526002909152808220805473ffffffffffffffffffffffffffffffffffffffff19168417905551839291907fddf252ad1be2c89b69c2b068fc378daa952ba7f163c4a11628f55a4df523b3ef908290a45050565b6000818152600460205260409020805473ffffffffffffffffffffffffffffffffffffffff19166001600160a01b0384169081179091558190610784826104c0565b6001600160a01b03167f8c5be1e5ebec7d5bd14f71427d1e84f3dd0314c0f7b2291e5b200ac8c7c3b92560405160405180910390a45050565b6000806107c9836104c0565b9050806001600160a01b0316846001600160a01b0316148061081057506001600160a01b0380821660009081526005602090815260408083209388168352929052205460ff165b806108345750836001600160a01b03166108298461037a565b6001600160a01b0316145b949350505050565b826001600160a01b031661084f826104c0565b6001600160a01b0316146108755760405162461bcd60e51b8152600401610406906113f5565b6001600160a01b03821661089b5760405162461bcd60e51b81526004016104069061145f565b826001600160a01b03166108ae826104c0565b6001600160a01b0316146108d45760405162461bcd60e51b8152600401610406906113f5565b6000818152600460209081526040808320805473ffffffffffffffffffffffffffffffffffffffff199081169091556001600160a01b0387811680865260038552838620805460001901905590871680865283862080546001019055868652600290945282852080549092168417909155905184937fddf252ad1be2c89b69c2b068fc378daa952ba7f163c4a11628f55a4df523b3ef91a4505050565b816001600160a01b0316836001600160a01b0316036109a25760405162461bcd60e51b8152600401610406906114a3565b6001600160a01b0383811660008181526005602090815260408083209487168084529490915290819020805460ff1916851515179055517f17307eab39ab6107e8899845ad3d59bd9653f200f220920489ca2b5937696c3190610a06908590610d17565b60405180910390a3505050565b610a1e84848461083c565b610a2a84848484610ae7565b6105895760405162461bcd60e51b81526004016104069061150d565b60606000610a5383610be8565b600101905060008167ffffffffffffffff811115610a7357610a73610f02565b6040519080825280601f01601f191660200182016040528015610a9d576020820181803683370190505b5090508181016020015b600019017f3031323334353637383961626364656600000000000000000000000000000000600a86061a8153600a8504945084610aa7575b509392505050565b60006001600160a01b0384163b15610bdd57604051630a85bd0160e11b81526001600160a01b0385169063150b7a0290610b2b90339089908890889060040161151d565b6020604051808303816000875af1925050508015610b66575060408051601f3d908101601f19168201909252610b639181019061156c565b60015b610bc3573d808015610b94576040519150601f19603f3d011682016040523d82523d6000602084013e610b99565b606091505b508051600003610bbb5760405162461bcd60e51b81526004016104069061150d565b805181602001fd5b6001600160e01b031916630a85bd0160e11b149050610834565b506001949350505050565b6000807a184f03e93ff9f4daa797ed6e38ed64bf6a1f0100000000000000008310610c31577a184f03e93ff9f4daa797ed6e38ed64bf6a1f010000000000000000830492506040015b6d04ee2d6d415b85acef81000000008310610c5d576d04ee2d6d415b85acef8100000000830492506020015b662386f26fc100008310610c7b57662386f26fc10000830492506010015b6305f5e1008310610c93576305f5e100830492506008015b6127108310610ca757612710830492506004015b60648310610cb9576064830492506002015b600a83106102e25760010192915050565b6001600160e01b031981165b811461063757600080fd5b80356102e281610cca565b600060208284031215610d0157610d01600080fd5b60006108348484610ce1565b8015155b82525050565b602081016102e28284610d0d565b60005b83811015610d40578181015183820152602001610d28565b50506000910152565b6000610d53825190565b808452602084019350610d6a818560208601610d25565b601f01601f19169290920192915050565b602080825281016105fc8184610d49565b80610cd6565b80356102e281610d8c565b600060208284031215610db257610db2600080fd5b60006108348484610d92565b60006001600160a01b0382166102e2565b610d1181610dbe565b602081016102e28284610dcf565b610cd681610dbe565b80356102e281610de6565b600060208284031215610e0f57610e0f600080fd5b60006108348484610def565b80610d11565b602081016102e28284610e1b565b60008060408385031215610e4557610e45600080fd5b6000610e518585610def565b9250506020610e6285828601610d92565b9150509250929050565b600080600060608486031215610e8457610e84600080fd5b6000610e908686610def565b9350506020610ea186828701610def565b9250506040610eb286828701610d92565b9150509250925092565b801515610cd6565b80356102e281610ebc565b60008060408385031215610ee557610ee5600080fd5b6000610ef18585610def565b9250506020610e6285828601610ec4565b634e487b7160e01b600052604160045260246000fd5b601f19601f830116810181811067ffffffffffffffff82111715610f3e57610f3e610f02565b6040525050565b6000610f5060405190565b9050610f5c8282610f18565b919050565b600067ffffffffffffffff821115610f7b57610f7b610f02565b601f19601f83011660200192915050565b82818337506000910152565b6000610fab610fa684610f61565b610f45565b905082815260208101848484011115610fc657610fc6600080fd5b610adf848285610f8c565b600082601f830112610fe557610fe5600080fd5b8135610834848260208601610f98565b6000806000806080858703121561100e5761100e600080fd5b600061101a8787610def565b945050602061102b87828801610def565b935050604061103c87828801610d92565b925050606085013567ffffffffffffffff81111561105c5761105c600080fd5b61106887828801610fd1565b91505092959194509250565b6000806040838503121561108a5761108a600080fd5b60006110968585610def565b9250506020610e6285828601610def565b634e487b7160e01b600052602260045260246000fd5b6002810460018216806110d157607f821691505b6020821081036110e3576110e36110a7565b50919050565b602181526000602082017f4552433732313a20617070726f76616c20746f2063757272656e74206f776e6581527f7200000000000000000000000000000000000000000000000000000000000000602082015291505b5060400190565b602080825281016102e2816110e9565b603d81526000602082017f4552433732313a20617070726f76652063616c6c6572206973206e6f7420746f81527f6b656e206f776e6572206f7220617070726f76656420666f7220616c6c0000006020820152915061113f565b602080825281016102e281611156565b602d81526000602082017f4552433732313a2063616c6c6572206973206e6f7420746f6b656e206f776e6581527f72206f7220617070726f766564000000000000000000000000000000000000006020820152915061113f565b602080825281016102e2816111c0565b601881526000602082017f4552433732313a20696e76616c696420746f6b656e2049440000000000000000815291505b5060200190565b602080825281016102e28161122a565b602981526000602082017f4552433732313a2061646472657373207a65726f206973206e6f74206120766181527f6c6964206f776e657200000000000000000000000000000000000000000000006020820152915061113f565b602080825281016102e281611271565b60006112e5825190565b6112f3818560208601610d25565b9290920192915050565b600061130982856112db565b915061083482846112db565b60208082527f4552433732313a206d696e7420746f20746865207a65726f20616464726573739101908152600061125a565b602080825281016102e281611315565b601c81526000602082017f4552433732313a20746f6b656e20616c7265616479206d696e746564000000008152915061125a565b602080825281016102e281611357565b602581526000602082017f4552433732313a207472616e736665722066726f6d20696e636f72726563742081527f6f776e65720000000000000000000000000000000000000000000000000000006020820152915061113f565b602080825281016102e28161139b565b602481526000602082017f4552433732313a207472616e7366657220746f20746865207a65726f2061646481527f72657373000000000000000000000000000000000000000000000000000000006020820152915061113f565b602080825281016102e281611405565b601981526000602082017f4552433732313a20617070726f766520746f2063616c6c6572000000000000008152915061125a565b602080825281016102e28161146f565b603281526000602082017f4552433732313a207472616e7366657220746f206e6f6e20455243373231526581527f63656976657220696d706c656d656e74657200000000000000000000000000006020820152915061113f565b602080825281016102e2816114b3565b6080810161152b8287610dcf565b6115386020830186610dcf565b6115456040830185610e1b565b81810360608301526115578184610d49565b9695505050505050565b80516102e281610cca565b60006020828403121561158157611581600080fd5b6000610834848461156156fea26469706673582212201e2c88d70afceb950bfbedaafc9c0ecfecd2cb3ce5db3d36a68f71c9c4dc81bd64736f6c63430008110033a2646970667358221220cbf38eeb3ed183eedc2488ee665b0cd26c8097436bb792fef03b1aa5b318014d64736f6c63430008110033",
  "linkReferences": {},
  "deployedLinkReferences": {}
}