{
  "_format": "hh-sol-artifact-1",
  "contractName": "SubscriptionContract",
  "sourceName": "contracts/basic-solidity-examples/SubscriptionContract.sol",
  "abi": [
    {
      "anonymous": false,
      "inputs": [
        {
          "indexed": false,
          "internalType": "address",
          "name": "from",
          "type": "address"
        },
        {
          "indexed": false,
          "internalType": "address",
          "name": "to",
          "type": "address"
        },
        {
          "indexed": false,
          "internalType": "uint256",
          "name": "amount",
          "type": "uint256"
        },
        {
          "indexed": false,
          "internalType": "uint256",
          "name": "planId",
          "type": "uint256"
        },
        {
          "indexed": false,
          "internalType": "uint256",
          "name": "date",
          "type": "uint256"
        }
      ],
      "name": "PaymentSent",
      "type": "event"
    },
    {
      "anonymous": false,
      "inputs": [
        {
          "indexed": false,
          "internalType": "address",
          "name": "artist",
          "type": "address"
        },
        {
          "indexed": false,
          "internalType": "string",
          "name": "name",
          "type": "string"
        },
        {
          "indexed": false,
          "internalType": "uint256",
          "name": "planId",
          "type": "uint256"
        },
        {
          "indexed": false,
          "internalType": "uint256",
          "name": "date",
          "type": "uint256"
        }
      ],
      "name": "PlanCreated",
      "type": "event"
    },
    {
      "anonymous": false,
      "inputs": [
        {
          "indexed": false,
          "internalType": "address",
          "name": "subscriber",
          "type": "address"
        },
        {
          "indexed": false,
          "internalType": "uint256",
          "name": "planId",
          "type": "uint256"
        },
        {
          "indexed": false,
          "internalType": "uint256",
          "name": "date",
          "type": "uint256"
        },
        {
          "indexed": false,
          "internalType": "bool",
          "name": "isSubscribed",
          "type": "bool"
        }
      ],
      "name": "SubscriptionCancelled",
      "type": "event"
    },
    {
      "anonymous": false,
      "inputs": [
        {
          "indexed": false,
          "internalType": "address",
          "name": "subscriber",
          "type": "address"
        },
        {
          "indexed": false,
          "internalType": "uint256",
          "name": "planId",
          "type": "uint256"
        },
        {
          "indexed": false,
          "internalType": "uint256",
          "name": "date",
          "type": "uint256"
        },
        {
          "indexed": false,
          "internalType": "bool",
          "name": "isSubscribed",
          "type": "bool"
        }
      ],
      "name": "SubscriptionCreated",
      "type": "event"
    },
    {
      "inputs": [
        {
          "internalType": "uint256",
          "name": "planId",
          "type": "uint256"
        }
      ],
      "name": "cancel",
      "outputs": [],
      "stateMutability": "nonpayable",
      "type": "function"
    },
    {
      "inputs": [
        {
          "internalType": "string",
          "name": "_name",
          "type": "string"
        },
        {
          "internalType": "uint256",
          "name": "_amount",
          "type": "uint256"
        }
      ],
      "name": "createPlan",
      "outputs": [],
      "stateMutability": "nonpayable",
      "type": "function"
    },
    {
      "inputs": [],
      "name": "getAllPlan",
      "outputs": [
        {
          "components": [
            {
              "internalType": "uint256",
              "name": "planId",
              "type": "uint256"
            },
            {
              "internalType": "address",
              "name": "artist",
              "type": "address"
            },
            {
              "internalType": "string",
              "name": "name",
              "type": "string"
            },
            {
              "internalType": "uint256",
              "name": "amount",
              "type": "uint256"
            },
            {
              "internalType": "uint256",
              "name": "frequency",
              "type": "uint256"
            },
            {
              "internalType": "address",
              "name": "nftAddress",
              "type": "address"
            }
          ],
          "internalType": "struct SubscriptionContract.Plan[]",
          "name": "",
          "type": "tuple[]"
        }
      ],
      "stateMutability": "view",
      "type": "function"
    },
    {
      "inputs": [],
      "name": "getMyPlans",
      "outputs": [
        {
          "components": [
            {
              "internalType": "uint256",
              "name": "planId",
              "type": "uint256"
            },
            {
              "internalType": "address",
              "name": "artist",
              "type": "address"
            },
            {
              "internalType": "string",
              "name": "name",
              "type": "string"
            },
            {
              "internalType": "uint256",
              "name": "amount",
              "type": "uint256"
            },
            {
              "internalType": "uint256",
              "name": "frequency",
              "type": "uint256"
            },
            {
              "internalType": "address",
              "name": "nftAddress",
              "type": "address"
            }
          ],
          "internalType": "struct SubscriptionContract.Plan[]",
          "name": "",
          "type": "tuple[]"
        }
      ],
      "stateMutability": "view",
      "type": "function"
    },
    {
      "inputs": [
        {
          "internalType": "address",
          "name": "artistAddress",
          "type": "address"
        },
        {
          "internalType": "address",
          "name": "_address",
          "type": "address"
        },
        {
          "internalType": "uint256",
          "name": "planId",
          "type": "uint256"
        }
      ],
      "name": "isSubscriber",
      "outputs": [
        {
          "internalType": "bool",
          "name": "",
          "type": "bool"
        }
      ],
      "stateMutability": "view",
      "type": "function"
    },
    {
      "inputs": [],
      "name": "nextPlanId",
      "outputs": [
        {
          "internalType": "uint256",
          "name": "",
          "type": "uint256"
        }
      ],
      "stateMutability": "view",
      "type": "function"
    },
    {
      "inputs": [
        {
          "internalType": "address",
          "name": "subscriber",
          "type": "address"
        },
        {
          "internalType": "uint256",
          "name": "planId",
          "type": "uint256"
        }
      ],
      "name": "pay",
      "outputs": [],
      "stateMutability": "payable",
      "type": "function"
    },
    {
      "inputs": [
        {
          "internalType": "uint256",
          "name": "",
          "type": "uint256"
        }
      ],
      "name": "plans",
      "outputs": [
        {
          "internalType": "uint256",
          "name": "planId",
          "type": "uint256"
        },
        {
          "internalType": "address",
          "name": "artist",
          "type": "address"
        },
        {
          "internalType": "string",
          "name": "name",
          "type": "string"
        },
        {
          "internalType": "uint256",
          "name": "amount",
          "type": "uint256"
        },
        {
          "internalType": "uint256",
          "name": "frequency",
          "type": "uint256"
        },
        {
          "internalType": "address",
          "name": "nftAddress",
          "type": "address"
        }
      ],
      "stateMutability": "view",
      "type": "function"
    },
    {
      "inputs": [
        {
          "internalType": "uint256",
          "name": "planId",
          "type": "uint256"
        }
      ],
      "name": "subscribe",
      "outputs": [],
      "stateMutability": "payable",
      "type": "function"
    },
    {
      "inputs": [
        {
          "internalType": "address",
          "name": "",
          "type": "address"
        },
        {
          "internalType": "address",
          "name": "",
          "type": "address"
        },
        {
          "internalType": "uint256",
          "name": "",
          "type": "uint256"
        }
      ],
      "name": "subscriptions",
      "outputs": [
        {
          "internalType": "address",
          "name": "subscriber",
          "type": "address"
        },
        {
          "internalType": "uint256",
          "name": "start",
          "type": "uint256"
        },
        {
          "internalType": "uint256",
          "name": "nextPayment",
          "type": "uint256"
        },
        {
          "internalType": "bool",
          "name": "isSubscribed",
          "type": "bool"
        }
      ],
      "stateMutability": "view",
      "type": "function"
    }
  ],
  "bytecode": "0x6080604052600160005534801561001557600080fd5b506133a9806100256000396000f3fe608060405260043610620000bf5760003560e01c8063945ae25b1162000071578063b16206161162000054578063b16206161462000228578063c40768761462000261578063d498fd4e146200027857600080fd5b8063945ae25b146200018b578063affb21d014620001b257600080fd5b80634e09bf4611620000a65780634e09bf4614620001025780635f8d26b21462000127578063658ceaec146200015757600080fd5b80630f574ba714620000c457806340e58ee514620000dd575b600080fd5b620000db620000d536600462000eef565b62000290565b005b348015620000ea57600080fd5b50620000db620000fc36600462000eef565b6200051e565b3480156200010f57600080fd5b50620000db620001213660046200102c565b6200060b565b3480156200013457600080fd5b506200013f60005481565b6040516200014e919062001093565b60405180910390f35b3480156200016457600080fd5b506200017c62000176366004620010cd565b620007d0565b6040516200014e91906200112e565b3480156200019857600080fd5b50620001a3620008ae565b6040516200014e9190620012ab565b348015620001bf57600080fd5b5062000216620001d1366004620010cd565b600360208181526000948552604080862082529385528385209052908352912080546001820154600283015492909301546001600160a01b0390911692919060ff1684565b6040516200014e9493929190620012be565b3480156200023557600080fd5b506200024d6200024736600462000eef565b620009f6565b6040516200014e9695949392919062001304565b620000db6200027236600462001371565b62000ad1565b3480156200028557600080fd5b50620001a362000c0e565b600081815260026020526040902060058101546001600160a01b0316620002d45760405162461bcd60e51b8152600401620002cb90620013ce565b60405180910390fd5b60018101546001600160a01b0316620003015760405162461bcd60e51b8152600401620002cb9062001415565b600181015460038201546040516001600160a01b039092169181156108fc0291906000818181858888f1935050505015801562000342573d6000803e3d6000fd5b50600181015460038201546040517f577462848cc2ec95e5ef95bf0b154b97340221cd1002ea0511a3877a7f20fb8c926200038f9233926001600160a01b03909216918790429062001427565b60405180910390a160058101546040517f70247acb0000000000000000000000000000000000000000000000000000000081526001600160a01b039091169081906370247acb90620003e69033906004016200147d565b6020604051808303816000875af115801562000406573d6000803e3d6000fd5b505050506040513d601f19601f820116820180604052508101906200042c91906200149a565b506040518060800160405280336001600160a01b031681526020014281526020018360040154426200045f9190620014d5565b815260016020918201819052848101546001600160a01b03908116600090815260038085526040808320338085529087528184208b8552875292819020875181546001600160a01b0319169516949094178455948601518385015585850151600284015560609095015191909401805460ff191691151591909117905590517f4ee771faba56615d06372cb080afd629cfcacaf98c6dcde9c918d742824dc979926200051192909187914291620012be565b60405180910390a1505050565b600081815260026020908152604080832060018101546001600160a01b039081168552600384528285203386528452828520868652909352922080549091166200057c5760405162461bcd60e51b8152600401620002cb9062001520565b6001808301546001600160a01b031660009081526003602081815260408084203380865290835281852089865290925280842080546001600160a01b03191681559485018490556002850184905593909101805460ff1916905591517f2f736aa2000a98229edce283afb3fe80e32ac3071a77038329576906e638ac4d926200051192909187914291620012be565b600081116200062e5760405162461bcd60e51b8152600401620002cb9062001567565b6000826040516200063f9062000ebd565b6200064b919062001579565b604051809103906000f08015801562000668573d6000803e3d6000fd5b50600080548082526002602081905260409092209081556001810180546001600160a01b031916331790559192508101620006a4858262001689565b506003810183905562278d0060048201556005810180546001600160a01b038085166001600160a01b0319928316179092556001805480820182556000829052845460069091027fb10e2d527612073b26eecdfd717e6a320cf44b4afac2b0732d9fcbe2b7fa0cf68101918255918501547fb10e2d527612073b26eecdfd717e6a320cf44b4afac2b0732d9fcbe2b7fa0cf7830180549094169416939093179091558291907fb10e2d527612073b26eecdfd717e6a320cf44b4afac2b0732d9fcbe2b7fa0cf8016200077a60028401826200176b565b506003828101549082015560048083015490820155600591820154910180546001600160a01b0319166001600160a01b03909216919091179055600080549080620007c58362001846565b919050555050505050565b6001600160a01b03838116600090815260036020908152604080832086851684528252808320858452909152812054909116620008215760405162461bcd60e51b8152600401620002cb9062001898565b6001600160a01b0380851660009081526003602090815260408083209387168352928152828220858352905220600201544210620008735760405162461bcd60e51b8152600401620002cb9062001907565b506001600160a01b03928316600090815260036020818152604080842095909616835293845284822092825291909252919020015460ff1690565b60606001805480602002602001604051908101604052809291908181526020016000905b82821015620009ed5760008481526020908190206040805160c081018252600686029092018054835260018101546001600160a01b031693830193909352600283018054929392918401916200092890620015a2565b80601f01602080910402602001604051908101604052809291908181526020018280546200095690620015a2565b8015620009a75780601f106200097b57610100808354040283529160200191620009a7565b820191906000526020600020905b8154815290600101906020018083116200098957829003601f168201915b50505091835250506003820154602080830191909152600483015460408301526005909201546001600160a01b03166060909101529082526001929092019101620008d2565b50505050905090565b600260208190526000918252604090912080546001820154928201805491936001600160a01b0316929162000a2b90620015a2565b80601f016020809104026020016040519081016040528092919081815260200182805462000a5990620015a2565b801562000aaa5780601f1062000a7e5761010080835404028352916020019162000aaa565b820191906000526020600020905b81548152906001019060200180831162000a8c57829003601f168201915b5050505060038301546004840154600590940154929390929091506001600160a01b031686565b600081815260026020908152604080832060018101546001600160a01b03908116855260038452828520878216865284528285208686529093529220805490911662000b315760405162461bcd60e51b8152600401620002cb9062001974565b8060020154421162000b575760405162461bcd60e51b8152600401620002cb90620019bb565b600182015460038301546040516001600160a01b039092169181156108fc0291906000818181858888f1935050505015801562000b98573d6000803e3d6000fd5b50600182015460038301546040517f577462848cc2ec95e5ef95bf0b154b97340221cd1002ea0511a3877a7f20fb8c9262000be59288926001600160a01b03909216918890429062001427565b60405180910390a18160040154816002015462000c039190620014d5565b600290910155505050565b600080546060918080805b8481101562000c7c57336002600062000c34846001620014d5565b81526020810191909152604001600020600101546001600160a01b03160362000c675762000c64600185620014d5565b93505b8062000c738162001846565b91505062000c19565b5060008367ffffffffffffffff81111562000c9b5762000c9b62000f1c565b60405190808252806020026020018201604052801562000d1a57816020015b62000d066040518060c001604052806000815260200160006001600160a01b0316815260200160608152602001600081526020016000815260200160006001600160a01b031681525090565b81526020019060019003908162000cba5790505b50905060005b8581101562000eb357336002600062000d3b846001620014d5565b81526020810191909152604001600020600101546001600160a01b03160362000e9e5762000d6b816001620014d5565b600081815260026020818152604092839020835160c0810185528154815260018201546001600160a01b03169281019290925291820180549497509193909284929084019162000dbb90620015a2565b80601f016020809104026020016040519081016040528092919081815260200182805462000de990620015a2565b801562000e3a5780601f1062000e0e5761010080835404028352916020019162000e3a565b820191906000526020600020905b81548152906001019060200180831162000e1c57829003601f168201915b505050918352505060038201546020820152600482015460408201526005909101546001600160a01b0316606090910152835184908790811062000e825762000e82620019cd565b602090810291909101015262000e9a600186620014d5565b9450505b8062000eaa8162001846565b91505062000d20565b5095945050505050565b61199080620019e483390190565b805b811462000ed957600080fd5b50565b803562000ee98162000ecb565b92915050565b60006020828403121562000f065762000f06600080fd5b600062000f14848462000edc565b949350505050565b634e487b7160e01b600052604160045260246000fd5b601f19601f830116810181811067ffffffffffffffff8211171562000f5b5762000f5b62000f1c565b6040525050565b600062000f6e60405190565b905062000f7c828262000f32565b919050565b600067ffffffffffffffff82111562000f9e5762000f9e62000f1c565b601f19601f83011660200192915050565b82818337506000910152565b600062000fd262000fcc8462000f81565b62000f62565b90508281526020810184848401111562000fef5762000fef600080fd5b62000ffc84828562000faf565b509392505050565b600082601f8301126200101a576200101a600080fd5b813562000f1484826020860162000fbb565b60008060408385031215620010445762001044600080fd5b823567ffffffffffffffff811115620010605762001060600080fd5b6200106e8582860162001004565b9250506020620010818582860162000edc565b9150509250929050565b805b82525050565b6020810162000ee982846200108b565b60006001600160a01b03821662000ee9565b62000ecd81620010a3565b803562000ee981620010b5565b600080600060608486031215620010e757620010e7600080fd5b6000620010f58686620010c0565b93505060206200110886828701620010c0565b92505060406200111b8682870162000edc565b9150509250925092565b8015156200108d565b6020810162000ee9828462001125565b6200108d81620010a3565b60005b83811015620011665781810151838201526020016200114c565b50506000910152565b60006200117a825190565b8084526020840193506200119381856020860162001149565b601f01601f19169290920192915050565b805160009060c0840190620011ba85826200108b565b506020830151620011cf60208601826200113e565b5060408301518482036040860152620011e982826200116f565b91505060608301516200120060608601826200108b565b5060808301516200121560808601826200108b565b5060a083015162000ffc60a08601826200113e565b6000620012388383620011a4565b9392505050565b60006200124a825190565b80845260208401935083602082028501620012658560200190565b8060005b858110156200129e57848403895281516200128585826200122a565b94506020830160209a909a019992505060010162001269565b5091979650505050505050565b602080825281016200123881846200123f565b60808101620012ce82876200113e565b620012dd60208301866200108b565b620012ec60408301856200108b565b620012fb606083018462001125565b95945050505050565b60c081016200131482896200108b565b6200132360208301886200113e565b81810360408301526200133781876200116f565b90506200134860608301866200108b565b6200135760808301856200108b565b6200136660a08301846200113e565b979650505050505050565b60008060408385031215620013895762001389600080fd5b60006200106e8585620010c0565b600f81526000602082017f496e76616c69642063726561746f720000000000000000000000000000000000815291505b5060200190565b6020808252810162000ee98162001397565b601881526000602082017f7468697320706c616e20646f6573206e6f74206578697374000000000000000081529150620013c7565b6020808252810162000ee981620013e0565b60a081016200143782886200113e565b6200144660208301876200113e565b6200145560408301866200108b565b6200146460608301856200108b565b6200147360808301846200108b565b9695505050505050565b6020810162000ee982846200113e565b805162000ee98162000ecb565b600060208284031215620014b157620014b1600080fd5b600062000f1484846200148d565b634e487b7160e01b600052601160045260246000fd5b8082018082111562000ee95762000ee9620014bf565b601f81526000602082017f737562736372697074696f6e706c616e20646f6573206e6f742065786973740081529150620013c7565b6020808252810162000ee981620014eb565b601681526000602082017f616d6f756e74206e6565647320746f206265203e20300000000000000000000081529150620013c7565b6020808252810162000ee98162001532565b602080825281016200123881846200116f565b634e487b7160e01b600052602260045260246000fd5b600281046001821680620015b757607f821691505b602082108103620015cc57620015cc6200158c565b50919050565b600062000ee9620015e08381565b90565b620015ee83620015d2565b81546008840282811b60001990911b908116901990911617825550505050565b60006200161d818484620015e3565b505050565b818110156200164157620016386000826200160e565b60010162001622565b5050565b601f8211156200161d576000818152602090206020601f850104810160208510156200166e5750805b620016826020601f86010483018262001622565b5050505050565b815167ffffffffffffffff811115620016a657620016a662000f1c565b620016b28254620015a2565b620016bf82828562001645565b6020601f831160018114620016f75760008415620016dd5750858201515b600019600886021c19811660028602175b86555062001756565b600085815260208120601f198616915b8281101562001729578885015182556020948501946001909201910162001707565b868310156200174957888501516000196008601f8a16021c1981165b8355505b6001600288020188555050505b505050505050565b805462000ee981620015a2565b81810362001777575050565b62001782826200175e565b67ffffffffffffffff8111156200179d576200179d62000f1c565b620017a98254620015a2565b620017b682828562001645565b6000601f831160018114620017e95760008415620016dd575081860154600019600886021c1981166002860217620016ee565b600095865260208087208688529087209096601f19861691905b8281101562001825578885015482556001948501949091019060200162001803565b868310156200174957888501546000196008601f8a16021c19811662001745565b600060001982036200185c576200185c620014bf565b5060010190565b601b81526000602082017f596f75206e65656420746f20737562736372696265206669727374000000000081529150620013c7565b6020808252810162000ee98162001863565b602f81526000602082017f596f75206e65656420746f2072656e657720796f75722073756273637269707481527f696f6e20746f20636f6e74696e75650000000000000000000000000000000000602082015291505b5060400190565b6020808252810162000ee981620018aa565b603f81526000602082017f737562736372697074696f6e20706c616e20646f6573206e6f7420657869737481527f206f7220796f752068617665206e6f74207965742073756273637269626564006020820152915062001900565b6020808252810162000ee98162001919565b600b81526000602082017f6e6f74206475652079657400000000000000000000000000000000000000000081529150620013c7565b6020808252810162000ee98162001986565b634e487b7160e01b600052603260045260246000fdfe60806040523480156200001157600080fd5b5060405162001990380380620019908339810160408190526200003491620001aa565b60408051808201909152600681526514159153919560d21b602082015281906000620000618382620002ed565b506001620000708282620002ed565b50505050620003bd565b634e487b7160e01b600052604160045260246000fd5b601f19601f83011681018181106001600160401b0382111715620000b857620000b86200007a565b6040525050565b6000620000cb60405190565b9050620000d9828262000090565b919050565b60006001600160401b03821115620000fa57620000fa6200007a565b601f19601f83011660200192915050565b60005b83811015620001285781810151838201526020016200010e565b50506000910152565b6000620001486200014284620000de565b620000bf565b905082815260208101848484011115620001655762000165600080fd5b620001728482856200010b565b509392505050565b600082601f830112620001905762000190600080fd5b8151620001a284826020860162000131565b949350505050565b600060208284031215620001c157620001c1600080fd5b81516001600160401b03811115620001dc57620001dc600080fd5b620001a2848285016200017a565b634e487b7160e01b600052602260045260246000fd5b6002810460018216806200021557607f821691505b6020821081036200022a576200022a620001ea565b50919050565b6000620002416200023e8381565b90565b92915050565b620002528362000230565b81546008840282811b60001990911b908116901990911617825550505050565b60006200028181848462000247565b505050565b81811015620002a5576200029c60008262000272565b60010162000286565b5050565b601f82111562000281576000818152602090206020601f85010481016020851015620002d25750805b620002e66020601f86010483018262000286565b5050505050565b81516001600160401b038111156200030957620003096200007a565b62000315825462000200565b62000322828285620002a9565b6020601f831160018114620003595760008415620003405750858201515b600019600886021c1981166002860217865550620003b5565b600085815260208120601f198616915b828110156200038b578885015182556020948501946001909201910162000369565b86831015620003a85784890151600019601f89166008021c191682555b6001600288020188555050505b505050505050565b6115c380620003cd6000396000f3fe608060405234801561001057600080fd5b50600436106100ea5760003560e01c806370247acb1161008c578063a22cb46511610066578063a22cb465146101d6578063b88d4fde146101e9578063c87b56dd146101fc578063e985e9c51461020f57600080fd5b806370247acb1461019b57806370a08231146101bb57806395d89b41146101ce57600080fd5b8063095ea7b3116100c8578063095ea7b31461014d57806323b872dd1461016257806342842e0e146101755780636352211e1461018857600080fd5b806301ffc9a7146100ef57806306fdde0314610118578063081812fc1461012d575b600080fd5b6101026100fd366004610cec565b61024b565b60405161010f9190610d17565b60405180910390f35b6101206102e8565b60405161010f9190610d7b565b61014061013b366004610d9d565b61037a565b60405161010f9190610dd8565b61016061015b366004610dfa565b6103a1565b005b610160610170366004610e37565b61044d565b610160610183366004610e37565b61047e565b610140610196366004610d9d565b610499565b6101ae6101a9366004610e87565b6104ce565b60405161010f9190610eae565b6101ae6101c9366004610e87565b6104f5565b610120610539565b6101606101e4366004610ecf565b610548565b6101606101f7366004610ff5565b610557565b61012061020a366004610d9d565b61058f565b61010261021d366004611074565b6001600160a01b03918216600090815260056020908152604080832093909416825291909152205460ff1690565b60006001600160e01b031982167f80ac58cd0000000000000000000000000000000000000000000000000000000014806102ae57506001600160e01b031982167f5b5e139f00000000000000000000000000000000000000000000000000000000145b806102e257507f01ffc9a7000000000000000000000000000000000000000000000000000000006001600160e01b03198316145b92915050565b6060600080546102f7906110bd565b80601f0160208091040260200160405190810160405280929190818152602001828054610323906110bd565b80156103705780601f1061034557610100808354040283529160200191610370565b820191906000526020600020905b81548152906001019060200180831161035357829003601f168201915b5050505050905090565b600061038582610603565b506000908152600460205260409020546001600160a01b031690565b60006103ac82610499565b9050806001600160a01b0316836001600160a01b0316036103e85760405162461bcd60e51b81526004016103df90611146565b60405180910390fd5b336001600160a01b038216148061042257506001600160a01b038116600090815260056020908152604080832033845290915290205460ff165b61043e5760405162461bcd60e51b81526004016103df906111b0565b610448838361063a565b505050565b61045733826106b5565b6104735760405162461bcd60e51b81526004016103df9061121a565b610448838383610734565b61044883838360405180602001604052806000815250610557565b6000818152600260205260408120546001600160a01b0316806102e25760405162461bcd60e51b81526004016103df90611261565b60006104de600680546001019055565b60006104e960065490565b90506102e28382610869565b60006001600160a01b03821661051d5760405162461bcd60e51b81526004016103df906112cb565b506001600160a01b031660009081526003602052604090205490565b6060600180546102f7906110bd565b610553338383610971565b5050565b61056133836106b5565b61057d5760405162461bcd60e51b81526004016103df9061121a565b61058984848484610a13565b50505050565b606061059a82610603565b60006105b160408051602081019091526000815290565b905060008151116105d157604051806020016040528060008152506105fc565b806105db84610a46565b6040516020016105ec9291906112fd565b6040516020818303038152906040525b9392505050565b6000818152600260205260409020546001600160a01b03166106375760405162461bcd60e51b81526004016103df90611261565b50565b6000818152600460205260409020805473ffffffffffffffffffffffffffffffffffffffff19166001600160a01b038416908117909155819061067c82610499565b6001600160a01b03167f8c5be1e5ebec7d5bd14f71427d1e84f3dd0314c0f7b2291e5b200ac8c7c3b92560405160405180910390a45050565b6000806106c183610499565b9050806001600160a01b0316846001600160a01b0316148061070857506001600160a01b0380821660009081526005602090815260408083209388168352929052205460ff165b8061072c5750836001600160a01b03166107218461037a565b6001600160a01b0316145b949350505050565b826001600160a01b031661074782610499565b6001600160a01b03161461076d5760405162461bcd60e51b81526004016103df9061136f565b6001600160a01b0382166107935760405162461bcd60e51b81526004016103df906113d9565b826001600160a01b03166107a682610499565b6001600160a01b0316146107cc5760405162461bcd60e51b81526004016103df9061136f565b6000818152600460209081526040808320805473ffffffffffffffffffffffffffffffffffffffff199081169091556001600160a01b0387811680865260038552838620805460001901905590871680865283862080546001019055868652600290945282852080549092168417909155905184937fddf252ad1be2c89b69c2b068fc378daa952ba7f163c4a11628f55a4df523b3ef91a4505050565b6001600160a01b03821661088f5760405162461bcd60e51b81526004016103df9061141b565b6000818152600260205260409020546001600160a01b0316156108c45760405162461bcd60e51b81526004016103df9061145f565b6000818152600260205260409020546001600160a01b0316156108f95760405162461bcd60e51b81526004016103df9061145f565b6001600160a01b0382166000818152600360209081526040808320805460010190558483526002909152808220805473ffffffffffffffffffffffffffffffffffffffff19168417905551839291907fddf252ad1be2c89b69c2b068fc378daa952ba7f163c4a11628f55a4df523b3ef908290a45050565b816001600160a01b0316836001600160a01b0316036109a25760405162461bcd60e51b81526004016103df906114a3565b6001600160a01b0383811660008181526005602090815260408083209487168084529490915290819020805460ff1916851515179055517f17307eab39ab6107e8899845ad3d59bd9653f200f220920489ca2b5937696c3190610a06908590610d17565b60405180910390a3505050565b610a1e848484610734565b610a2a84848484610ae7565b6105895760405162461bcd60e51b81526004016103df9061150d565b60606000610a5383610be8565b600101905060008167ffffffffffffffff811115610a7357610a73610f02565b6040519080825280601f01601f191660200182016040528015610a9d576020820181803683370190505b5090508181016020015b600019017f3031323334353637383961626364656600000000000000000000000000000000600a86061a8153600a8504945084610aa7575b509392505050565b60006001600160a01b0384163b15610bdd57604051630a85bd0160e11b81526001600160a01b0385169063150b7a0290610b2b90339089908890889060040161151d565b6020604051808303816000875af1925050508015610b66575060408051601f3d908101601f19168201909252610b639181019061156c565b60015b610bc3573d808015610b94576040519150601f19603f3d011682016040523d82523d6000602084013e610b99565b606091505b508051600003610bbb5760405162461bcd60e51b81526004016103df9061150d565b805181602001fd5b6001600160e01b031916630a85bd0160e11b14905061072c565b506001949350505050565b6000807a184f03e93ff9f4daa797ed6e38ed64bf6a1f0100000000000000008310610c31577a184f03e93ff9f4daa797ed6e38ed64bf6a1f010000000000000000830492506040015b6d04ee2d6d415b85acef81000000008310610c5d576d04ee2d6d415b85acef8100000000830492506020015b662386f26fc100008310610c7b57662386f26fc10000830492506010015b6305f5e1008310610c93576305f5e100830492506008015b6127108310610ca757612710830492506004015b60648310610cb9576064830492506002015b600a83106102e25760010192915050565b6001600160e01b031981165b811461063757600080fd5b80356102e281610cca565b600060208284031215610d0157610d01600080fd5b600061072c8484610ce1565b8015155b82525050565b602081016102e28284610d0d565b60005b83811015610d40578181015183820152602001610d28565b50506000910152565b6000610d53825190565b808452602084019350610d6a818560208601610d25565b601f01601f19169290920192915050565b602080825281016105fc8184610d49565b80610cd6565b80356102e281610d8c565b600060208284031215610db257610db2600080fd5b600061072c8484610d92565b60006001600160a01b0382166102e2565b610d1181610dbe565b602081016102e28284610dcf565b610cd681610dbe565b80356102e281610de6565b60008060408385031215610e1057610e10600080fd5b6000610e1c8585610def565b9250506020610e2d85828601610d92565b9150509250929050565b600080600060608486031215610e4f57610e4f600080fd5b6000610e5b8686610def565b9350506020610e6c86828701610def565b9250506040610e7d86828701610d92565b9150509250925092565b600060208284031215610e9c57610e9c600080fd5b600061072c8484610def565b80610d11565b602081016102e28284610ea8565b801515610cd6565b80356102e281610ebc565b60008060408385031215610ee557610ee5600080fd5b6000610ef18585610def565b9250506020610e2d85828601610ec4565b634e487b7160e01b600052604160045260246000fd5b601f19601f830116810181811067ffffffffffffffff82111715610f3e57610f3e610f02565b6040525050565b6000610f5060405190565b9050610f5c8282610f18565b919050565b600067ffffffffffffffff821115610f7b57610f7b610f02565b601f19601f83011660200192915050565b82818337506000910152565b6000610fab610fa684610f61565b610f45565b905082815260208101848484011115610fc657610fc6600080fd5b610adf848285610f8c565b600082601f830112610fe557610fe5600080fd5b813561072c848260208601610f98565b6000806000806080858703121561100e5761100e600080fd5b600061101a8787610def565b945050602061102b87828801610def565b935050604061103c87828801610d92565b925050606085013567ffffffffffffffff81111561105c5761105c600080fd5b61106887828801610fd1565b91505092959194509250565b6000806040838503121561108a5761108a600080fd5b60006110968585610def565b9250506020610e2d85828601610def565b634e487b7160e01b600052602260045260246000fd5b6002810460018216806110d157607f821691505b6020821081036110e3576110e36110a7565b50919050565b602181526000602082017f4552433732313a20617070726f76616c20746f2063757272656e74206f776e6581527f7200000000000000000000000000000000000000000000000000000000000000602082015291505b5060400190565b602080825281016102e2816110e9565b603d81526000602082017f4552433732313a20617070726f76652063616c6c6572206973206e6f7420746f81527f6b656e206f776e6572206f7220617070726f76656420666f7220616c6c0000006020820152915061113f565b602080825281016102e281611156565b602d81526000602082017f4552433732313a2063616c6c6572206973206e6f7420746f6b656e206f776e6581527f72206f7220617070726f766564000000000000000000000000000000000000006020820152915061113f565b602080825281016102e2816111c0565b601881526000602082017f4552433732313a20696e76616c696420746f6b656e2049440000000000000000815291505b5060200190565b602080825281016102e28161122a565b602981526000602082017f4552433732313a2061646472657373207a65726f206973206e6f74206120766181527f6c6964206f776e657200000000000000000000000000000000000000000000006020820152915061113f565b602080825281016102e281611271565b60006112e5825190565b6112f3818560208601610d25565b9290920192915050565b600061130982856112db565b915061072c82846112db565b602581526000602082017f4552433732313a207472616e736665722066726f6d20696e636f72726563742081527f6f776e65720000000000000000000000000000000000000000000000000000006020820152915061113f565b602080825281016102e281611315565b602481526000602082017f4552433732313a207472616e7366657220746f20746865207a65726f2061646481527f72657373000000000000000000000000000000000000000000000000000000006020820152915061113f565b602080825281016102e28161137f565b60208082527f4552433732313a206d696e7420746f20746865207a65726f20616464726573739101908152600061125a565b602080825281016102e2816113e9565b601c81526000602082017f4552433732313a20746f6b656e20616c7265616479206d696e746564000000008152915061125a565b602080825281016102e28161142b565b601981526000602082017f4552433732313a20617070726f766520746f2063616c6c6572000000000000008152915061125a565b602080825281016102e28161146f565b603281526000602082017f4552433732313a207472616e7366657220746f206e6f6e20455243373231526581527f63656976657220696d706c656d656e74657200000000000000000000000000006020820152915061113f565b602080825281016102e2816114b3565b6080810161152b8287610dcf565b6115386020830186610dcf565b6115456040830185610ea8565b81810360608301526115578184610d49565b9695505050505050565b80516102e281610cca565b60006020828403121561158157611581600080fd5b600061072c848461156156fea264697066735822122043051c4e39cdedeb9ab901e4e7810b47bb221a30b542ee61e22cf05a51a4ef9664736f6c63430008110033a2646970667358221220a5b55bce05dd418d9dcd6a31ca0ee67a7f08c0cc59f781774fde785af6f9f27264736f6c63430008110033",
  "linkReferences": {},
  "deployedLinkReferences": {}
}